S01100002E2E2F466C6F6F6449742E733139A7
S32D0000C0000000002029F1000091F4000091F4000091F4000091F4000091F400000000000000000000000000003F
S32D0000C0280000000091F4000091F400000000000091F4000091F4000091F4000091F4000091F4000091F40000C2
S32D0000C05091F4000091F4000091F4000091F4000091F4000091F4000091F4000091F4000091F4000091F4000090
S32D0000C07891F4000091F4000091F4000091F4000091F4000091F4000091F4000091F4000091F4000091F4000068
S32D0000C0A091F4000091F4000091F4000091F4000091F4000091F4000091F4000091F4000091F4000091F4000040
S32D0000C0C891F4000091F4000091F4000091F4000091F4000091F4000091F4000091F4000091F4000091F4000018
S32D0000C0F091F40000D54A010091F4000091F4000091F4000091F4000091F4000091F4000091F4000091F4000055
S32D0000C11891F4000091F4000091F4000091F4000091F4000091F4000091F4000091F4000091F4000091F40000C7
S32D0000C14091F4000091F4000091F4000091F40000911F010091F4000091F4000091F4000091F4000091F4000073
S32D0000C16891F4000091F4000091F4000091F4000091F4000091F4000091F4000091F4000091F4000091F4000077
S32D0000C19091F4000091F4000091F40000C51B0100191A0100ED1A0100E1F400009D1C010091F4000091F400003C
S32D0000C1B891F4000091F4000091F4000091F4000091F4000091F4000091F4000091F4000091F4000091F4000027
S32D0000C41081F0004102E000BF83F0004330B54FEA41044FEA430594EA050F08BF90EA020F1FBF54EA000C55EAC6
S32D0000C438020C7FEA645C7FEA655C00F0E2804FEA5454D4EB5555B8BF6D420CDD2C4480EA020281EA030382EA0F
S32D0000C460000083EA010180EA020281EA0303362D88BF30BD11F0004F4FEA01314FF4801C4CEA113102D0404263
S32D0000C48861EB410113F0004F4FEA03334CEA133302D0524263EB430394EA050F00F0A780A4F10104D5F1200E8A
S32D0000C4B00DDB02FA0EFC22FA05F2801841F1000103FA0EF2801843FA05F359410EE0A5F120050EF1200E012A2D
S32D0000C4D803FA0EFC28BF4CF0020C43FA05F3C01851EBE37101F0004507D54FF0000EDCF1000C7EEB00006EEB67
S32D0000C5000101B1F5801F1BD3B1F5001F0CD349085FEA30004FEA3C0C04F101044FEA445212F5800F80F09A8000
S32D0000C528BCF1004F08BF5FEA500C50F1000041EB045141EA050130BD5FEA4C0C404141EB010111F4801FA4F114
S32D0000C5500104E9D191F0000F04BF01460020B1FA81F308BF2033A3F10B03B3F120020CDA0C3208DD02F1140C87
S32D0000C578C2F10C0201FA0CF021FA02F10CE002F11402D8BFC2F1200C01FA02F120FA0CFCDCBF41EA0C019040B1
S32D0000C5A0E41AA2BF01EB0451294330BD6FEA04041F3C1CDA0C340EDC04F11404C4F1200220FA04F001FA02F3B6
S32D0000C5C840EA030021FA04F345EA030130BDC4F10C04C4F1200220FA02F001FA04F340EA0300294630BD21FAA8
S32D0000C5F004F0294630BD94F0000F83F4801306BF81F480110134013D4EE77FEA645C18BF7FEA655C29D094EA1C
S32D0000C618050F08BF90EA020F05D054EA000C04BF1946104630BD91EA030F1EBF0021002030BD5FEA545C05D1A3
S32D0000C6404000494128BF41F0004130BD14F580043CBF01F5801130BD01F0004545F0FE4141F470014FF0000031
S32D0000C66830BD7FEA645C1ABF194610467FEA655C1CBF0B46024650EA013406BF52EA033591EA030F41F40021D7
S32D0000C69030BD00BF90F0000F04BF0021704730B54FF4806404F132044FF000054FF0000150E700BF90F0000F66
S32D0000C6B804BF0021704730B54FF4806404F1320410F0004548BF40424FF000013EE700BF42004FEAE2014FEAF9
S32D0000C6E031014FEA02701FBF12F07F4393F07F4F81F06051704792F0000F14BF93F07F4F704730B54FF460741B
S32D0000C70801F0004521F0004120E700BF50EA010208BF704730B54FF000050AE050EA010208BF704730B511F046
S32D0000C730004502D5404261EB41014FF4806404F132045FEA915C3FF4DCAE4FF003025FEADC0C18BF03325FEAA0
S32D0000C758DC0C18BF033202EBDC02C2F1200300FA03FC20FA02F001FA03FE40EA0E0021FA02F11444C1E600BF19
S32D0000C78070B54FF0FF0C4CF4E06C1CEA11541DBF1CEA135594EA0C0F95EA0C0F00F0DEF82C4481EA030621EAF3
S32D0000C7A84C5123EA4C5350EA013518BF52EA033541F4801143F4801338D0A0FB02CE4FF00005E1FB02E506F05F
S32D0000C7D00042E0FB03E54FF00006E1FB03569CF0000F18BF4EF0010EA4F1FF04B6F5007F64F5407404D25FEA0F
S32D0000C7F84E0E6D4146EB060642EAC62141EA55514FEAC52040EA5E504FEACE2EB4F1FD0C88BFBCF5E06F1ED8D2
S32D0000C820BEF1004F08BF5FEA500E50F1000041EB045170BD06F0004646EA010140EA020081EA0301B4EB5C0487
S32D0000C848C2BFD4EB0C0541EA045170BD41F480114FF0000E013C00F3AB8014F1360FDEBF002001F0004170BDF0
S32D0000C870C4F10004203C35DA0C341BDC04F11404C4F1200500FA05F320FA04F001FA05F240EA020001F0004207
S32D0000C89821F0004110EBD37021FA04F642EB06015EEA430E08BF20EAD37070BDC4F10C04C4F1200500FA04F32F
S32D0000C8C020FA05F001FA04F240EA020001F0004110EBD37041F100015EEA430E08BF20EAD37070BDC4F12005C7
S32D0000C8E800FA05F24EEA020E20FA04F301FA05F243EA020321FA04F001F0004121FA04F220EA020000EBD37028
S32D0000C9105EEA430E08BF20EAD37070BD94F0000F0FD101F00046400041EB010111F4801F08BF013CF7D041EA6D
S32D0000C938060195F0000F18BF704703F00046520043EB030313F4801F08BF013DF7D043EA0603704794EA0C0FF1
S32D0000C9600CEA135518BF95EA0C0F0CD050EA410618BF52EA4306D1D181EA030101F000414FF0000070BD50EA38
S32D0000C988410606BF1046194652EA430619D094EA0C0F02D150EA013613D195EA0C0F05D152EA03361CBF10467B
S32D0000C9B019460AD181EA030101F0004141F0FE4141F470014FF0000070BD41F0FE4141F4780170BD70B54FF04D
S32D0000C9D8FF0C4CF4E06C1CEA11541DBF1CEA135594EA0C0F95EA0C0F00F0A7F8A4EB050481EA030E52EA03359B
S32D0000CA004FEA013100F088804FEA03334FF0805545EA131343EA12634FEA022245EA111545EA10654FEA002676
S32D0000CA280EF000419D4208BF964244F1FD0404F5407402D25B084FEA3202B61A65EB03055B084FEA32024FF461
S32D0000CA5080104FF4002CB6EB020E75EB030E22BFB61A754640EA0C005B084FEA3202B6EB020E75EB030E22BF22
S32D0000CA78B61A754640EA5C005B084FEA3202B6EB020E75EB030E22BFB61A754640EA9C005B084FEA3202B6EBEA
S32D0000CAA0020E75EB030E22BFB61A754640EADC0055EA060E18D04FEA051545EA16754FEA06164FEAC30343EAAC
S32D0000CAC852734FEAC2025FEA1C1CC0D111F4801F0BD141EA00014FF000004FF0004CB6E711F4801F04BF0143AE
S32D0000CAF00020B4F1FD0C88BFBCF5E06F3FF6AFAEB5EB030C04BFB6EB020C5FEA500C50F1000041EB045170BDBC
S32D0000CB180EF0004E4EEA113114EB5C04C2BFD4EB0C0541EA045170BD41F480114FF0000E013C90E645EA060EC3
S32D0000CB408DE60CEA135594EA0C0F08BF95EA0C0F3FF43BAF94EA0C0F0AD150EA01347FF434AF95EA0C0F7FF499
S32D0000CB6825AF104619462CE795EA0C0F06D152EA03353FF4FDAE1046194622E750EA410618BF52EA43067FF432
S32D0000CB90C5AE50EA41047FF40DAF52EA43057FF4EBAE12E74FEA410212F5001215D211D56FF47873B3EB6252CB
S32D0000CBB812D94FEAC12343F0004343EA505311F0004F23FA02F018BF404270474FF00000704750EA013005D15B
S32D0000CBE011F0004008BF6FF0004070474FF00000704700BF4A0011D212F5001211D20DD56FF47873B3EB625269
S32D0000CC080ED44FEAC12343F0004343EA505323FA02F070474FF00000704750EA013002D14FF0FF3070474FF05B
S32D0000CC30000070474FEA4102B2F1E04324BFB3F5001CDCF1FE5C0DD901F0004C4FEAC0024CEA5070B2F1004F09
S32D0000CC5840EB830008BF20F00100704711F0804F21D113F13872BCBF01F00040704741F480114FEA5252C2F148
S32D0000CC801802C2F1200C10FA0CF320FA02F018BF40F001004FEAC1234FEAD32303FA0CFC40EA0C0023FA02F3D7
S32D0000CCA84FEA4303CCE77FEA625307D150EA01331EBF4FF0FE4040F44000704701F0004040F0FE4040F4000070
S32D0000CCD0704700BF80F0004002E000BF81F0004142001FBF5FEA410392EA030F7FEA226C7FEA236C6AD04FEA20
S32D0000CCF81262D2EB1363C1BFD218414048404140B8BF5B42192B88BF704710F0004F40F4000020F07F4018BFF4
S32D0000CD20404211F0004F41F4000121F07F4118BF494292EA030F3FD0A2F1010241FA03FC10EB0C00C3F120035F
S32D0000CD4801FA03F100F0004302D5494260EB4000B0F5000F13D3B0F1807F06D340084FEA310102F10102FE2ACA
S32D0000CD7051D2B1F1004F40EBC25008BF20F0010040EA03007047490040EB000010F4000FA2F10102EDD1B0FA03
S32D0000CD9880FCACF1080CB2EB0C0200FA0CF0AABF00EBC25052421843BCBFD0401843704792F0000F81F40001A6
S32D0000CDC006BF80F400000132013BB5E74FEA41037FEA226C18BF7FEA236C21D092EA030F04D092F0000F08BF13
S32D0000CDE80846704790EA010F1CBF0020704712F07F4F04D1400028BF40F00040704712F100723CBF00F5000084
S32D0000CE10704700F0004343F0FE4040F4000070477FEA226216BF08467FEA23630146420206BF5FEA412390EA38
S32D0000CE38010F40F4800070474FF0000304E000BF10F0004348BF40425FEA000C08BF704743F0964301464FF03B
S32D0000CE6000001CE050EA010208BF70474FF000030AE000BF50EA010208BF704711F0004302D5404261EB41011C
S32D0000CE885FEA010C02BF84460146002043F0B64308BFA3F18053A3F50003BCFA8CF2083AA3EBC25310DB01FA40
S32D0000CEB002FC634400FA02FCC2F12002BCF1004F20FA02F243EB020008BF20F00100704702F1200201FA02FC0B
S32D0000CED8C2F1200250EA4C0021FA02F243EB020008BF20EADC7070474FF0FF0C1CEAD0521EBF1CEAD15392EAC9
S32D0000CF000C0F93EA0C0F6FD01A4480EA010C400218BF5FEA41211ED04FF0006343EA501043EA5111A0FB0131FF
S32D0000CF280CF00040B1F5000F3EBF490041EAD3715B0040EA010062F17F02FD2A1DD8B3F1004F40EBC25008BFC8
S32D0000CF5020F00100704790F0000F0CF0004C08BF49024CEA502040EA51207F3AC2BFD2F1FF0340EAC2507047CF
S32D0000CF7840F400004FF00003013A5DDC12F1190FDCBF00F000407047C2F10002410021FA02F1C2F1200200FA21
S32D0000CFA002FC5FEA310040F1000053EA4C0308BF20EADC70704792F0000F00F0004C02BF400010F4000F013A3E
S32D0000CFC8F9D040EA0C0093F0000F01F0004C02BF490011F4000F013BF9D041EA0C018FE70CEAD15392EA0C0FEB
S32D0000CFF018BF93EA0C0F0AD030F0004C18BF31F0004CD8D180EA010000F00040704790F0000F17BF90F0004FEB
S32D0000D018084691F0000F91F0004F14D092EA0C0F01D142020FD193EA0C0F03D14B0218BF084608D180EA0100A9
S32D0000D04000F0004040F0FE4040F40000704740F0FE4040F4400070474FF0FF0C1CEAD0521EBF1CEAD15392EAAB
S32D0000D0680C0F93EA0C0F69D0A2EB030280EA010C49024FEA402037D04FF0805343EA111143EA10130CF00040CD
S32D0000D0908B4238BF5B0042F17D024FF4000C8B4224BF5B1A40EA0C00B3EB510F24BFA3EB510340EA5C00B3EB10
S32D0000D0B8910F24BFA3EB910340EA9C00B3EBD10F24BFA3EBD10340EADC001B0118BF5FEA1C1CE0D1FD2A3FF695
S32D0000D0E050AF8B4240EBC25008BF20F0010070470CF0004C4CEA50207F32C2BFD2F1FF0340EAC250704740F47E
S32D0000D10800004FF00003013A37E792F0000F00F0004C02BF400010F4000F013AF9D040EA0C0093F0000F01F0C0
S32D0000D130004C02BF490011F4000F013BF9D041EA0C0195E70CEAD15392EA0C0F08D142027FF47DAF93EA0C0FA9
S32D0000D1587FF470AF084676E793EA0C0F04D14B023FF44CAF08466EE730F0004C18BF31F0004CCAD130F0004234
S32D0000D1807FF45CAF31F000437FF43CAF5FE700BF4FF0FF3C06E000BF4FF0010C02E000BF4FF0010C4DF804CDCE
S32D0000D1A84FEA40024FEA41037FEA226C18BF7FEA236C11D001B052EA530C18BF90EA010F58BFB2EB030088BF0F
S32D0000D1D0C81738BF6FEAE17018BF40F0010070477FEA226C02D15FEA402C05D17FEA236CE4D15FEA412CE1D089
S32D0000D1F85DF8040B704700BF844608466146FFE70FB5FFF7C9FF002848BF10F1000F0FBD4DF808EDFFF7F4FFDA
S32D0000D2200CBF012000205DF808FB00BF4DF808EDFFF7EAFF34BF012000205DF808FB00BF4DF808EDFFF7E0FF4A
S32D0000D24894BF012000205DF808FB00BF4DF808EDFFF7D2FF94BF012000205DF808FB00BF4DF808EDFFF7C8FF6A
S32D0000D27034BF012000205DF808FB00BF4FEA4002B2F1FE4F0FD34FF09E03B3EB12620DD94FEA002343F000434E
S32D0000D29810F0004F23FA02F018BF404270474FF00000704712F1610F01D1420205D110F0004008BF6FF00040FF
S32D0000D2C070474FF000007047036803B11B181846704700BF03685A004CBF43F0004323F00043C018704700BF83
S32D0000D2E82DE9F84F0446914641B301F1FF3BDA46002707EB0A0101EBD1756D1004EBC5063046FFF7E3FF8046B9
S32D0000D310681CAB4504EBC0000DD0FFF7DBFF0138C84504D9BD4209D005F1FF3AE5E7484505D26F1CE1E74FF033
S32D0000D338FF30F1E700263046BDE8F88F0E463046BDE8F88F30B52B4B83B004468D1E002B49D0284601A9AFF381
S32D0000D36000800346002822D02A4618460199FFF7BBFF054600281DD0FFF7ACFF6B68A064012B10D0281D002B50
S32D0000D38822DBFFF7A3FF0021E06421650368002B0FDBFFF79BFF2061002003B030BD002323610520F9E7206179
S32D0000D3B00920F6E720610920F3E7C3F3036058B101280CD002280ED0002020610920E8E70122E0642265DDE74B
S32D0000D3D8094B2361E1E7094A00202261DDE7084900202161D9E7074B0749C81AC2100192B6E700BF00000000D5
S32D0000D40019D9000015D9000011D90000C07D0100C07F0100036810B50446D80706D4990704F1480009D500F0D8
S32D0000D4280DFD23685A0709D518070ED5D90613D510BD00F0FBFC23685A07F5D404F1D00000F004FD2368180770
S32D0000D450F0D404F5D87000F005FD2368D906EBD404F50C70BDE8104000F040BD2DE9F0470F1D054691460FCFBE
S32D0000D478ADF5916D02AC261D0FC60FCF0FC60FCF0FC697E80F00D5F80C80D5F818A0002786E80F00216C276096
S32D0000D4A02846FFF753FF0646B94514BF4FF00A094FF00909FEB1A16B49F01009616401208DE8100449462A466D
S32D0000D4C82B46C04700282BD1002E2AD1204692A94FF4107207F0FFFD082F28D1216C2846FFF730FF06464FF03D
S32D0000D4F00909002EDFD1206C21464FF41072686192A807F0ECFD2F69294692AA4846B847A09B07466364012043
S32D0000D5188DE8100449462A462B46C0470028D3D00926304622B00DF5806DBDE8F087072FF6D1201D00F06EFC04
S32D0000D54038B504460D46296C2046FFF7FFFE50B92A6C23696261012021462A4698470828F1D0072801D009F096
S32D0000D568F7FE281D00F056FC11B933B10220704704298CBF0220012070470F2A01D90220704700EB8201184668
S32D0000D5904A68009B1A60704710B50A4684B000210B4603AC0094FFF7E3FF039804B010BD11B933B10220704776
S32D0000D5B804298CBF0220012070470F2A01D902207047009900EB8202096818465160704710B584B004AB0C46AE
S32D0000D5E043F8042D0021009322460B46FFF7E0FF04B010BD2DE9F04FCD6C8BB00C4655F8041B174600F0080210
S32D0000D6081E46039200F003080795002B40F0CF8009020691216D8DF821300323B8F1020F8DF8203008BFA56B28
S32D0000D63011F0010340F0D380019304F158030293D5F80090B9F1000F00F0CB80022E00F0AE80B5F80090B5F842
S32D0000D65802A00435A26C0F212AF0010B38469344FFF796FF834518D829F0010CE3440AF0010A09F001035845E1
S32D0000D68043EA4A092CBF00200120B9F1010F12D032D2B8F1000F02D0002840F01D810435CEE70AF0010A09F0C4
S32D0000D6A8010343EA4A090020B9F1010FECD1B8F1000F40F0B680C8B16B68D5F800909A1C19D0029A0133099268
S32D0000D6D00DD0281DFFF7F8FD4FEAD972014609AB204608F0A3FE002800F0F280099A002A40F0BA800835A3E719
S32D0000D6F8B9F1020F03D009200BB0BDE8F08F2B6823F000420092B8F1000F71D1002843D00398002840F0A180AB
S32D0000D7200098002800F0A080009BDDF80C90DB0705F1040A40F1B480CDF810800596A846029E12E000998D42DC
S32D0000D74800F0D9800996FFF7BBFD5A46014609AB204608F067FEA946B0B90AF1040A05F1010950460996FFF733
S32D0000D770ABFD09AB01460022204608F057FE0AF1040A834609F101055046BBF1000FD9D04546059EDDF81080B4
S32D0000D798009A4A4564D02B68002B7BDB0099481C05EB800548E7D5F804A0083552E70B04C1F30740216D069339
S32D0000D7C00222B8F1020F05EB800508BFA56B8DF8210011F001038DF820203FF42DAF00200190384606A900F0C4
S32D0000D7E819FC002887D1019A002A43D1082083E70D213846D4F82090FFF7CAFE8145CAD1A26A9542C7D10098B9
S32D0000D810291D00220423A062E26223636163286800286EDB01220192BCE70D213846D4F82090FFF7B1FE8145DE
S32D0000D8387FF45CAFA16A8D427FF458AF2846FFF745FD0F2102463846FFF7C2FE384600212246FFF7BDFE0720BF
S32D0000D8604EE7009900299BD138460D21FFF794FE099B20626362A562062041E70F213846FFF78AFE0E21024620
S32D0000D8883846FFF7A5FE38460F211E4AFFF7A0FE072031E7043581E7029950460991FFF70FFD039A014609AB6C
S32D0000D8B0204608F0BBFD00287FF46EAFCDF8108005960AF1040A4FF00109A846029E4CE7CDF824800835B3E63A
S32D0000D8D82846FFF7FBFC04350646A563204608F017FE00283FF407AF38460F213246FFF76FFE072000E7454694
S32D0000D900B2E7009B591C05EB81009CE78166010002236FE601236DE600236BE62DE9F0470446E8B004290CD8CF
S32D0000D928DFE801F0380391930F00150C012B96B200F07881052B00F0C780022068B0BDE8F087002BF9D1102A41
S32D0000D950F7D82368D90600F1738164A8019200F0CFFA019AA36BD00744BF53F8040B6490910744BF53F8041B5D
S32D0000D9786591500744BF53F8041B6691110748BF53F8042B64A8A36348BF679200F0AAFA0020D3E7002BD0D1EB
S32D0000D9A0A36BD00791B244BF53F8042B62608A0744BF53F8042BA260480744BF53F8042BE2600A0744BF53F875
S32D0000D9C8042B2261C80644BF53F8042B62618A0644BF53F8042BA261480644BF53F8042BE2610A0644BF53F8F5
S32D0000D9F0042B2262C80544BF53F8042B62628A0544BF53F8042BA262480544BF53F8042BE2620A0544BF53F8CD
S32D0000DA18042B2263C80444BF53F8042B626311F400501CBF53F8042BA2634A0444BF53F8042BE2630A0444BF4E
S32D0000DA4053F8042B2264002840D1A3637AE7012078E7032B7FF475AF160C95B2AA19102A3FF66FAF2368180770
S32D0000DA6800F10B8144A800F01BFAA76B4FEA450E3B460DB344A90EF1FF3C01EBC60653F8040B62460CF0010164
S32D0000DA9046F8040B92B129B153F8041B013A46F8041B0BD01846314650F8045B41F8045B5D68031D75600E1D28
S32D0000DAB8023AF3D107EB8E0344A8A36300F0CEF900203BE7002039E777192022BA42FFF434AF012B00F0A980A9
S32D0000DAE00F2D40F2A9803746F6B1052B7FF429AF0F2D11D82268D0070ED522F00101052B2160204600F0DA8004
S32D0000DB0822F0030240F8482B019300F093F9019B1FB12268510700F1B880012B00F0BF800F2D75D9002F40F062
S32D0000DB30A080D4F83890002EC8462EDD49460DF1080A4FEA46080AEBC50251F8046B08F1FF3000F0010A42F8D5
S32D0000DB58046BA8F1020CD0B1BAF1000F08D051F8040B0CF1FF3CBCF1FF3F42F8040B0ED00E46104656F804AB2D
S32D0000DB8040F804AB4968ACF1020C5160311D021DBCF1FF3FF0D109EB8808A7B3102D2CBF2E4610260DF5D0796F
S32D0000DBA8414609EBC60CACF5C8724FEA470951F8046B09F1FF3000F0010A42F8046BA9F1020CD0B1BAF1000F36
S32D0000DBD008D051F8040B0CF1FF3CBCF1FF3F42F8040B0ED00E46104656F804AB40F804AB4968ACF1020C516012
S32D0000DBF8311D021DBCF1FF3FF0D108EB8908012B2BD00F2DC4F8388008D9FFB9384695E602A8019300F016F9BC
S32D0000DC20019B83E702A800F00DF9F2E77719102250E70F2D3FF685AE102F10D9103F54E723F01003236004F566
S32D0000DC480C70019200F058F9019A82E624A800F0FDF8002072E6002746E708F1040302A8A36300F0E3F8002043
S32D0000DC7068E624A80193C5F1100600F0EFF8019B57E723F0080704F5D870276000F00CF9ECE6204622F004012D
S32D0000DC9840F8D01B019300F0DDF8019B3DE702A8019300F0C7F8019B002F3FF43EAFC5F110063AE741F0020129
S32D0000DCC040F8481B019300F0C1F8019B24E700BF406C7047F0B50D460F1DC96B296404460FCFADF5117D01AEA9
S32D0000DCE80FC60FCF0FC60FCF0FC697E80F0086E80F004FF0FF33009310992046FFF722FB58B9266921466A46EB
S32D0000DD10B04708280646F3D06846FFF77BFB062E03D009200DF5117DF0BD20462946FFF707FC00BF10B4DC6B90
S32D0000DD38C1608261194600221C6410BCFFF792BB38B54269C3680A6404460D4623B10122FFF788FB09F0FCFA7C
S32D0000DD600369214602202A469847072803D0082804D009F0F1FA281D00F050F820462946FFF7DEFBC36823B147
S32D0000DD88CA6B0A640022FFF76DBB9FE7704700BF08B5836801460BB10120984708BD00BFF0B5D46B171D1464CF
S32D0000DDB005460C460FCFADF5277D01AE0FC60FCF0FC60FCF0FC697E80F0086E80F004FF0FF330093109990A8AA
S32D0000DDD8FFF7B8FA034690AA68460C21BBB9FFF7F7FB21466846A847064690A908206A466EB9949B98470528F8
S32D0000DE00064601D00928E5D16846FFF703FB30460DF5277DF0BD0926F6E700BF00F1340191E838009C46A64615
S32D0000DE284CF8045D90E8FF0FE54600BD90EC210B704700BF80EC210B704700BF90EC200B704700BF80EC200BD9
S32D0000DE50704700BFD0EC200B704700BFC0EC200B704700BFF0EC0201F0EC0211F0EC0221F0EC0231F0EC024189
S32D0000DE78F0EC0251F0EC0261F0EC0271F0EC0281F0EC0291F0EC02A1F0EC02B1F0EC02C1F0EC02D1F0EC02E1D6
S32D0000DEA0F0EC02F1704700BFE0EC0201E0EC0211E0EC0221E0EC0231E0EC0241E0EC0251E0EC0261E0EC0271D7
S32D0000DEC8E0EC0281E0EC0291E0EC02A1E0EC02B1E0EC02C1E0EC02D1E0EC02E1E0EC02F1704700BFB0FC018150
S32D0000DEF0B0FC0191B0FC01A1B0FC01B1704700BFA0FC0181A0FC0191A0FC01A1A0FC01B1704700BFEC4600B56F
S32D0000DF182DE900502DE9FF1F4FF000032DE90C0001A9FFF7D3FEDDF840E012B0704700BFEC4600B52DE90050F2
S32D0000DF402DE9FF1F4FF000032DE90C0001A9FFF7FBFEDDF840E012B0704700BFEC4600B52DE900502DE9FF1FD4
S32D0000DF684FF000032DE90C0001A9FFF707FFDDF840E012B0704700BFEC4600B52DE900502DE9FF1F4FF0000391
S32D0000DF902DE90C0001ABFFF7CDFEDDF840E012B0704700BFEC4600B52DE900502DE9FF1F4FF000032DE90C00C2
S32D0000DFB801AAFFF7F5FEDDF840E012B0704700BF027A03461AB9427A42B9B02070470068013A01021A72000E64
S32D0000DFE0196070474168501E587251F8040B0322596001021A72000E1960704710B5002184B00C220DEB0204B9
S32D0000E0080B460094FFF7B0FA039804B010BD00BFF0E700BF2DE9F043064685B00D464FF000094FF47F672846F8
S32D0000E030FFF7CAFFB028044600F0B08010F0800120D000F0F003802B74D0902B37D0A02B45D0B02B56D0C02BF0
S32D0000E05800F0858000F0F800D0280BD104F00702511C41F40022304601210523FFF752FC0028D8D0092005B076
S32D0000E080BDE8F0834FEA800203A85FFA82F800900D220B463046FFF76BFA039B600608F104084CBFC8EB030373
S32D0000E0A8434403AC03930094002130460D220B46FFF77AFAB7E700F00F020D2ADAD00F2AD8D0002103AC0094A4
S32D0000E0D030460B4603ACFFF74BFA0094E8E7C24302F0070C47FA0CF0210700F47F6248BF42F480420021304634
S32D0000E0F80B46FFF70FFC0028BCD194E7B1285DD0B2286ED0B32800F0958000F0FC02B42A46D000F00702531C30
S32D0000E12043F40022012130460B46FFF7F7FB0028A4D17CE72846FFF747FF210240EA0104B4F5004F9AD0230521
S32D0000E14800211A0C30460B462401FFF7E3FB002890D114F4004F18BF4FF0010963E7C62873D0C72800F0848044
S32D0000E17000F0F802C02A00F09280C82800F0A680C9287FF47BAF2846FFF71EFF00F00F0300F0F0015A1C42EA11
S32D0000E198013268E7B9F1000F00F0838000206AE700F00301481C022140F480220B463046FFF7B0FB00287FF466
S32D0000E1C05DAF34E72846FFF7FFFE024600283FF455AF10F0F0017FF451AF30460B46FFF79DFB00287FF44AAFB5
S32D0000E1E821E700210D220B4603AC30460094FFF7BBF92846FFF7E4FE022402060DD5039B00F07F0000FA04FE9E
S32D0000E21003EB0E0128460391FFF7D6FE07340306F1D4039B00F07F0103AA03F5017C01FA04F400920CEB04025C
S32D0000E238039239E72846FFF7C3FE00F00F03591C00F0F00041EA003268E72846FFF7B8FE00F00F03591C00F05A
S32D0000E260F00041EA0032032130460B46FFF756FB00287FF403AFDAE62846FFF7A5FE024600283FF4FBAE10F0B1
S32D0000E288F0037FF4F7AE30460421FFF743FB00287FF4F0AEC7E600F00F01481C40F42022DDE703AC49460E229C
S32D0000E2B04B4630460094FFF75BF9304649460F224B460094FFF774F94846D8E62846FFF77BFE00F0F00200F0A2
S32D0000E2D80F001032431C43EA0232C4E610B5C26C84B0032054688DF80C00D37924020832084601A901940292F9
S32D0000E3008DF80D30FFF78AFE04B010BD08B5FFF783FE806C08BD00BF08B5FFF77DFEC16CC87901EB800303F18B
S32D0000E328080008BD08B509F013F800BF08B509F00FF800BF80B483B000AF78607B68184607F10C07BD4680BC85
S32D0000E350704700BF80B483B000AF78607B685B68184607F10C07BD4680BC704780B483B000AF78607B689B6862
S32D0000E378184607F10C07BD4680BC704780B483B000AF78607B681B68184607F10C07BD4680BC704780B483B0FE
S32D0000E3A000AF78607B681B7B184607F10C07BD4680BC704780B483B000AF786039607B683A685A6007F10C071F
S32D0000E3C8BD4680BC704700BF80B483B000AF786039607B683A689A6007F10C07BD4680BC704700BF80B483B045
S32D0000E3F000AF786039607B683A681A6007F10C07BD4680BC704700BF80B483B000AF78600B46FB707B68FA7821
S32D0000E4181A7307F10C07BD4680BC7047F0B593B000AFF860B9607A603B60FB6803F11403184600F06BFB47F270
S32D0000E4400053C0F2010307F110041D460FCD0FC40FCD0FC495E8030084E80300FB68BA685A60FB687A689A606B
S32D0000E468FB683A6E1A61FB684FF00002DA60FB689B684FEA8303184607F0F4FE0246FB681A604FF000037B6470
S32D0000E49028E0FB685B681C464FEA0413184607F0E5FE064633461D4604F1FF331C4606E02846FFF743FF05F113
S32D0000E4B8100504F1FF34B4F1FF3F0CBF00230123DBB2002BF0D1FB681A687B6C4FEA8303D3181E607B6C03F1BC
S32D0000E4E001037B64FB689A687B6C9A42D4BF00230123DBB2002BCCD14FF000033B6465E04FF00003FB6353E0DB
S32D0000E50806F0C6FD03463A6893FBF2F2396801FB02F29B1ABB63FB681A683B6C4FEA8303D3181A68FB6B4FEA14
S32D0000E5300313D218BB6B4FEA830307F14801CB1853F8383C10461946FFF750FFFB681A683B6C4FEA8303D318C5
S32D0000E5581A68FB6B4FEA0313D3181846396CFFF725FFFB681A683B6C4FEA8303D3181A68FB6B4FEA0313D318FE
S32D0000E5801846F96BFFF724FFFB681A683B6C4FEA8303D3181A68FB6B4FEA0313D31818464FF00001FFF730FF77
S32D0000E5A8FB6B03F10103FB63FB685A68FB6B9A42D4BF00230123DBB2002BA1D13B6C03F101033B64FB689A687B
S32D0000E5D03B6C9A42D4BF00230123DBB2002B8FD1FB68184607F14C07BD46F0BD80B485B000AFF860B9607A6089
S32D0000E5F8FB681A68BB684FEA8303D3181A687B684FEA0313D318184607F11407BD4680BC704700BF80B483B017
S32D0000E62000AF78607B681B69184607F10C07BD4680BC704780B483B000AF78607B68DB68184607F10C07BD46FF
S32D0000E64880BC704780B483B000AF786039607B683A68DA6007F10C07BD4680BC704700BF80B588B000AF7860B7
S32D0000E6704FF00103FB757B6803F11403184600F065FA03463B610CE07B6803F11403184600F07AFA0346FB6009
S32D0000E698F8684FF00001FFF7B3FE7B6803F11403184600F05BFA034683F00103DBB2002BE6D178684FF000012D
S32D0000E6C04FF00002FFF792FF03461846FFF75AFE0346BB6041F21440C1F6FF70B96804F0BFFD4FF00003FB61EF
S32D0000E6E843E04FF00003BB6131E07868F969BA69FFF778FF03461846FFF740FE034641F21440C1F6FF70194670
S32D0000E71004F0A6FD7868F969BA69FFF767FF03461846FFF72FFE0246BB689A420CBF00230123DBB2002B0AD0CE
S32D0000E73841F21440C1F6FF704FF0000104F0A0FD4FF0000325E0BB6903F10103BB617B685A68FB699A42D4BF3E
S32D0000E76000230123DBB2002BC3D1FB6903F10103FB617B689A68FB699A42D4BF00230123DBB2002BB1D141F2D4
S32D0000E7881440C1F6FF704FF0010104F079FD4FF00103184607F12007BD4680BD90B585B000AFF860B9607A60CA
S32D0000E7B03B60B868FFF7F2FD0346002B40F0BD80FB6803F114031846B96800F0F9F9B8684FF00101FFF718FE7E
S32D0000E7D8B868FFF7D3FD02467B689A420CBF00230123DBB2002B40F0A680B8683968FFF7F9FDF86800F0A6F86B
S32D0000E800B868FFF7A7FD034603F1FF336FEA03034FEAD373DBB2002B18D0FB681C68B868FFF798FD034603F174
S32D0000E828FF334FEA8303E3181C68B868FFF79AFD03464FEA0313E318F86819467A683B68FFF7ACFFB868FFF717
S32D0000E85081FD034603F10102FB685B689A42ACBF00230123DBB2002B18D0FB681C68B868FFF770FD034603F1E1
S32D0000E87801034FEA8303E3181C68B868FFF772FD03464FEA0313E318F86819467A683B68FFF784FFB868FFF745
S32D0000E8A065FD034603F1FF336FEA03034FEAD373DBB2002B18D0FB681C68B868FFF74AFD03464FEA8303E318B4
S32D0000E8C81C68B868FFF74EFD034603F1FF334FEA0313E318F86819467A683B68FFF75EFFB868FFF73FFD034652
S32D0000E8F003F10102FB685B689A42ACBF00230123DBB2002B1DD0FB681C68B868FFF722FD03464FEA8303E3188B
S32D0000E9181C68B868FFF726FD034603F101034FEA0313E318F86819467A683B68FFF736FF03E000BF02E000BFD7
S32D0000E94000E000BF07F11407BD4690BD90B587B002AF786041F21440C1F6FF704FF0000104F020FA7B689B68C1
S32D0000E9684FF0B40292FBF3F37A68526802FB03F34FEAD372D3184FEA6303C3F1A0027B689B684FF0B40191FBC6
S32D0000E990F3F37968496801FB03F303F101034FF0B501009141F21440C1F6FF7011464FF0190205F075F84FF072
S32D0000E9B80003FB605FE04FF00003BB604DE07868F968BA68FFF70EFE03461846FFF7D6FC034641F21440C1F6AF
S32D0000E9E0FF70194604F0DEF97B689B684FF0B40292FBF3F37A68526802FB03F34FEAD372D3184FEA6303C3F1D7
S32D0000EA08A102BB684FF0B40101FB03F17B689B6891FBF3F3D118FB684FF0B40202FB03F27B689B6892FBF3F352
S32D0000EA3003F11A027B689B684FF0B40090FBF3F3786880684FF0B40494FBF0F0009041F21440C1F6FF7005F0FE
S32D0000EA58E9F8BB6803F10103BB607B685A68BB689A42D4BF00230123DBB2002BA7D1FB6803F10103FB607B6832
S32D0000EA809A68FB689A42D4BF00230123DBB2002B95D17B68DB6803F10903122B0DD87B68DB6841F21440C1F683
S32D0000EAA8FF7019464FF08E024FF0D00304F0B6F90CE07B68DB6841F21440C1F6FF7019464FF082024FF0D003FB
S32D0000EAD004F0A8F941F21440C1F6FF7047F22851C0F201014FF09A024FF0D00304F06EF97B681B6941F214403A
S32D0000EAF8C1F6FF7019464FF0A6024FF0D00304F08DF907F11407BD4690BD00BF80B582B000AF78607B684FF0C6
S32D0000EB2000021A607B684FF002025A607B685B684FEA8303184607F099FB02467B689A607B68184607F10807B0
S32D0000EB48BD4680BD80B483B000AF78607B681B68184607F10C07BD4680BC704780B483B000AF78607B681B6858
S32D0000EB70002B14BF00230123DBB2184607F10C07BD4680BC704700BF80B584B000AF78607B681B6803F1FF320C
S32D0000EB987B681A607B689A687B681B684FEA8303D3181B68FB60786800F022F8FB68184607F11007BD4680BD25
S32D0000EBC080B582B000AF786039607B689A687B681B684FEA8303D3183A681A607B681B6803F101027B681A60D5
S32D0000EBE8786800F005F807F10807BD4680BD00BF80B586B000AF78607B681A687B685B689A4236D17B681B68E6
S32D0000EC104FEA43027B685A607B685B684FEA8303184607F023FB0346FB604FF000037B6110E07B694FEA83038E
S32D0000EC38FA68D3187A6891687A694FEA82028A1812681A607B6903F101037B617A697B681B689A422CBF002365
S32D0000EC600123DBB2002BE4D17B689B68184607F0EFFA7B68FA689A6041E07B681A687B685B684FEA93039A42BB
S32D0000EC8839D27B685B684FEA53027B685A607B685B684FEA8303184607F0E4FA0346BB604FF000033B6110E0B8
S32D0000ECB03B694FEA8303BA68D3187A6891683A694FEA82028A1812681A603B6903F101033B613A697B681B68B4
S32D0000ECD89A422CBF00230123DBB2002BE4D17B689B68002B04D07B689B68184607F0C4FA7B68BA689A6007F1BE
S32D0000ED001807BD4680BD00BF90B595B002AFF860B9607A60A44B7B63A34B3B634FF0000387F8473007F11003A5
S32D0000ED284FF0120200921846F968BA687B68FFF775FBF5E007F110031846FFF703FE00BF07F1340207F1300361
S32D0000ED5041F21440C1F6FF7011461A4604F0D4F8034683F00103DBB2002B1ED07B6B1846FEF784FA0346462B9A
S32D0000ED7814DD7B6B1846FEF77DFA0346FA2B0DDC3B6B1846FEF776FA0346192B06DD3B6B1846FEF76FFA0346F1
S32D0000EDA0CD2B02DD4FF0010301E04FF00003002BCAD13B6B1846FEF761FA0346A3F11A043B6B1846FEF75AFAA6
S32D0000EDC80346A3F11A034FF0B401BA6891FBF2F293FBF2F102FB01F29B1AE21A4FF0B401BB6891FBF3F392FB75
S32D0000EDF0F3F33B647B6B1846FEF740FA034603F1FF324FF0B401BB6891FBF3F3F96801FB03F34FEAD371CB1853
S32D0000EE184FEA6303A3F1A003D4187B6B1846FEF729FA034603F1FF324FF0B401BB6891FBF3F3F96801FB03F364
S32D0000EE404FEAD371CB184FEA6303A3F1A003D3184FF0B401BA6891FBF2F293FBF2F102FB01F29B1AE21A4FF0AC
S32D0000EE68B401BB6891FBF3F392FBF3F3FB6307F110031846396CFA6BFFF7B4FB03461846FFF77CFA0346BB63CF
S32D0000EE9007F1100318464FF000014FF00002FFF7A5FB03461846FFF76DFA0246BB6B9A420CBF00230123DBB2E7
S32D0000EEB8002B35D007F110031846FFF7B7FB034603F1010307F1100210461946FFF7BAFB07F1100318464FF098
S32D0000EEE000014FF00002FFF781FB044607F1100318464FF000014FF00002FFF777FB03461846FFF73FFA034695
S32D0000EF0807F11002104621461A46BB6BFFF746FC07F110031846FFF7A3FB034687F8473097F8473083F001039D
S32D0000EF30DBB2002B7FF402AF41F21440C1F6FF7047F22C51C0F2010104F076F94FF000004FF0804101F5A01177
S32D0000EF5802F0FAFC41F21440C1F6FF704FF0010103F0B6FE07F110031846FFF75FFB044607F110031846FFF7AC
S32D0000EF804DFB03469C42CCBF00230123DBB2002B02D04FF0010301E04FF00003184607F14C07BD4690BD00BF7A
S32D0000EFA8000080BFB0B584B000AF41F21440C1F6FF7047F23851C0F2010104F039F94FF000004FF0804101F536
S32D0000EFD0002102F0BDFC02F0E7FC02460B4610461946FDF707FE0346184606F065F84FF00003FB7341F21440FA
S32D0000EFF8C1F6FF704FF0000103F06AFE41F21440C1F6FF704FF0010103F0B4FE5EE041F21440C1F6FF7047F273
S32D0000F0204C51C0F2010104F007F900BF07F1080207F1040341F21440C1F6FF7011461A4603F062FF034683F049
S32D0000F0480103DBB2002BEDD1BB684FF00102144618462549FEF704F90346002B02D14FF000031C46E5B27B683E
S32D0000F0704FF00102144618461D49FEF7F5F80346002B02D14FF000031C46E3B22B40DBB2002B1FD041F2144017
S32D0000F098C1F6FF7047F26C51C0F2010104F0C8F84FF000004FF0804102F04EFC41F21440C1F6FF704FF001015D
S32D0000F0C003F00AFE4FF004004FF004014FF00402FFF71AFEFB7B83F00103DBB2002B9AD14FF00003184607F1A5
S32D0000F0E81007BD46B0BD00BF0000000080B500AF41F66052C1F6FF7241F23013C1F6FF73D31A194641F230135E
S32D0000F110C1F6FF731A460B4610464FF000011A4605F0E6FF80BD00BF07F050F800F0B6F9FFF7E0FF07F022F867
S32D0000F13806F0BEFF07F056F800F00CF84FF0000041F23011C1F6FF71FFF72CFF0346184605F082FF80B500AFC1
S32D0000F1604FF4E043C4F204034FF4E042C4F2040202F5805202F13802126842F4785203F5805303F138031A6059
S32D0000F18800F034F900F09AF841F26033C1F6FF734FF058021A6041F26033C1F6FF731B684FF47A7202FB03F225
S32D0000F1B041F25C33C1F6FF731A6041F25C33C1F6FF731B681A464FF4E043C4F2040303F5825303F104031B6890
S32D0000F1D803F070634FEA136303F10103B2FBF3F31A4641F26433C1F6FF731A604FF4E043C4F204034FF4E042B4
S32D0000F200C4F2040202F5805202F13C02126842F0225203F5805303F13C031A604FF4E043C4F204034FF4E0420A
S32D0000F228C4F2040202F5805202F13002126842F0006203F5805303F130031A604FF45043C4F203034FF48072CD
S32D0000F2501A614FF0640002F02FFA4FF45043C4F203034FF45042C4F20302526922F010025A614FF45043C4F20F
S32D0000F27803034FF000021A604FF45043C4F203034FF010025A6102F0EFFD02F097FE41F25830C1F6FF7002F0D1
S32D0000F2A08FFA41F20C50C1F6FF7005F073FE41F21440C1F6FF7003F071FB41F2883002F02BFB80BD80B400AF6D
S32D0000F2C84FF48043C4F206034FF000025A704FF48043C4F206034FF098021A704FF48043C4F206039B79DBB2BA
S32D0000F2F003F01003002B0CBF00230123DBB2002BF0D14FF48043C4F206039B79DBB203F00C034FEA9303022BD0
S32D0000F3180CBF00230123DBB2002BEED14FF48043C4F206034FF018021A714FF48043C4F206034FF000025A71C4
S32D0000F3404FF4E043C4F2040303F5825303F104034FF00002C0F213121A604FF48043C4F206034FF054025A71FD
S32D0000F36800BF4FF48043C4F206039B79DBB203F02003002B14BF00230123DBB2002BF0D100BF4FF48043C4F203
S32D0000F39006039B79DBB203F04003002B14BF00230123DBB2002BF0D14FF48043C4F206034FF48042C4F2060229
S32D0000F3B81278D2B202F03F02D2B21A704FF48043C4F206039B79DBB203F00C034FEA9303032B0CBF0023012361
S32D0000F3E0DBB2002BEED14FF000031846BD4680BC704700BF80B400AF4FF44043C4F204034FF480725A634FF29A
S32D0000F408C003C4F20F034FF2C002C4F20F02526942F400525A614FF2C003C4F20F034FF2C002C4F20F02126873
S32D0000F43042F400521A604FF44043C4F2040340F20312C0F20A021A634FF46143CEF200034FF46142CEF2000255
S32D0000F458D2F8882142F08062C3F888214FF46143CEF200034FF46142CEF20002926842F080629A60BD4680BC02
S32D0000F480704700BF80B483B000AF7860FEE700BF80B400AF00BEBD4680BC704780B400AF4FF0E0224CF200035A
S32D0000F4A8C0F20003C2F8083D4FF40053C4F205034CF22052DA814FF40053C4F205034DF62812DA814FF4005361
S32D0000F4D0C4F205034FF0D2021A80BD4680BC704780B500AF4FF44043C4F20403D3F8A03003F48053002B0CBFEB
S32D0000F4F800230123DBB2002B1FD04FF44043C4F204034FF44042C4F20402D2F8A02022F48052C3F8A02041F2D4
S32D0000F5209C40C1F6FF7005F0C1FC4FF2C003C4F20F034FF2C002C4F20F02126822F400521A6080BD80B485B071
S32D0000F54800AF02460B46FA71BB71BB79002B07D141F23413C1F6FF734FF000021A7006E041F23413C1F6FF7388
S32D0000F5704FF001021A704FF03803FB7341F23413C1F6FF731A78FB7B1343FB734FF4C043C4F206034FF4C04200
S32D0000F598C4F206029278D2B242F01002D2B29A704FF4C043C4F206034FF4C042C4F206029278D2B242F020023D
S32D0000F5C0D2B29A704FF4C043C4F20603FA7B1A7107F11407BD4680BC704700BF80B483B000AF4FF001037B608E
S32D0000F5E804E000BF7B6803F101037B607B68312BCCBF00230123DBB2002BF2D107F10C07BD4680BC704700BF50
S32D0000F61080B582B000AF02460B46FA71BB7141F23513C1F6FF731B7818464FF00001FFF789FF00F033F84FF4D5
S32D0000F638C043C4F20603FA791A7100F02BF84FF4C043C4F20603BA791A7100F023F84FF4C043C4F206034FF4BB
S32D0000F660C042C4F206029278D2B222F02002D2B29A704FF4C043C4F206034FF4C042C4F206029278D2B222F0C4
S32D0000F6881002D2B29A70FFF7A5FF07F10807BD4680BD00BF80B483B000AF41F23613C1F6FF731B78002B33D197
S32D0000F6B04FF000037B6011E07A6842F210739A4207DD41F23613C1F6FF734FF001021A7013E07B6803F1010386
S32D0000F6D87B6000BF4FF4C043C4F20603DB78DBB203F00203002B14BF00230123DBB2002BDED14FF4C043C4F2E5
S32D0000F70006034FF4C042C4F20602D278D2B242F00202D2B2DA7000E000BF07F10C07BD4680BC704780B582B0F6
S32D0000F72800AF0346FB71FB79184600F06BF807F10807BD4680BD00BF80B582B000AF02460B46FA71BB7100F0EE
S32D0000F75039F8FB794FEA4303DBB21846FFF7E2FFBB791846FFF7DEFF00F03EF807F10807BD4680BD80B500AFEF
S32D0000F7784FF0FF0000F046F80346184680BD00BF80B584B000AF0346FB7100F017F8FB794FEA4303DBB243F0D5
S32D0000F7A00103DBB2DBB21846FFF7BCFFFFF7E2FF0346FB7300F018F8FB7B184607F11007BD4680BD80B400AF7A
S32D0000F7C84FF24003C4F20F034FF24002C4F20F02926842F480129A60BD4680BC704700BF80B400AF4FF24003A5
S32D0000F7F0C4F20F034FF24002C4F20F02526842F480125A60BD4680BC704700BF80B485B000AF0346FB714FF0DC
S32D0000F8180003BB7303E0FB7B03F10103FB734FF44043C4F20A03DB6A4FF00003002BF2D14FF44043C4F20A034B
S32D0000F8404FF44042C4F20A02D26A42F00042DA624FF44043C4F20A03FA795A6300BF4FF44043C4F20A03DB6AE1
S32D0000F86803F40033002B14BF00230123DBB2002BF1D14FF44043C4F20A039B6BBB73BB7B184607F11407BD4622
S32D0000F89080BC70470000000080B582B000AF4FF4E043C4F204034FF4E042C4F2040202F5805202F13002126895
S32D0000F8B842F4805203F5805303F130031A604FF42043C4F204034FF480721A654FF24003C4F20F034FF24002C8
S32D0000F8E0C4F20F02526942F480125A61FFF77CFF4FF42043C4F204034FF400725A654FF42043C4F204034FF407
S32D0000F90800729A654FF42043C4F204034FF40072DA654FF44043C4F20A034FF44062C8F200021A604FF440439F
S32D0000F930C4F20A034FF00502C3F60062DA604FF000037B6007E04FF0FF00FFF7EBFE7B6803F101037B607B6891
S32D0000F958092BCCBF00230123DBB2002BEFD104A1D1E9000101F0F0FF07F10807BD4680BD9A9999999999B93FED
S32D0000F98090B486B000AFF860B9607A60FA684FF42043C4F206039A4214D14FF4E043C4F204034FF4E042C4F21F
S32D0000F9A8040202F5805202F13402126842F4806203F5805303F134031A6083E0FA684FF43043C4F206039A4221
S32D0000F9D014D14FF4E043C4F204034FF4E042C4F2040202F5805202F13402126842F4006203F5805303F13403E6
S32D0000F9F81A6067E0FA684FF44043C4F206039A4214D14FF4E043C4F204034FF4E042C4F2040202F5805202F178
S32D0000FA203402126842F4805203F5805303F134031A604BE0FA684FF45043C4F206039A4214D14FF4E043C4F291
S32D0000FA4804034FF4E042C4F2040202F5805202F13402126842F4005203F5805303F134031A602FE0FA684FF450
S32D0000FA702043C4F20E039A4214D14FF4E043C4F204034FF4E042C4F2040202F5805202F12802126842F48062C1
S32D0000FA9803F5805303F128031A6013E04FF4E043C4F204034FF4E042C4F2040202F5805202F12802126842F40F
S32D0000FAC0006203F5805303F128031A60FB68DB78DBB223F00C03DAB2FB68DA70FB684FF000029A70BB684FF4A0
S32D0000FAE87A7202FB03F27B684FEA031392FBF3F39CB2FB681B78DBB223F01F03FB75234603F4F8534FEA2323CD
S32D0000FB10DBB203F01F03DAB2FB7D1343DAB2FB681A70E2B2FB685A70BB684FF4FA4202FB03F27B684FEA0313CB
S32D0000FB3892FBF3F39AB2234619464FEAC121CB1A4FEA43139BB2D3189CB2FB689B7ADBB223F01F03FB75E3B2C4
S32D0000FB6003F01F03DAB2FB7D1343DAB2FB689A72FB68DB78DBB243F00C03DAB2FB68DA7007F11807BD4690BCE9
S32D0000FB88704700BF80B483B000AF786000BF7B681B79DBB203F02003002B14BF00230123DBB2002BF3D17B686E
S32D0000FBB0DB79DBB2184607F10C07BD4680BC704780B487B000AFF860B9607A60FB687B6107E0BB68DAB27B69C9
S32D0000FBD81A707B6903F101037B617B68002B0CBF00230123DBB27A6802F1FF327A60002BEBD107F11C07BD462B
S32D0000FC0080BC704780B584B000AF786039607B681B6BFB60FA683B689A4264D07B681B79002B43D07B685A7817
S32D0000FC287B6803F1340310461946FA684FF0010301F0ACFB0346002B0CBF00230123DBB2002B02D04FF001035B
S32D0000FC504BE07B684FF000021A717B685A6A7B681B6AD218FB689A4220D97B68DB78FB7214E07B681B6AFA681A
S32D0000FC78D318FB607B685A787B6803F1340310461946FA684FF0010301F080FBFB7A03F1FF33FB72FB7A012BE6
S32D0000FCA094BF00230123DBB2002BE2D13B68002B19D07B685A787B6803F13403104619463A684FF0010301F02C
S32D0000FCC857FA0346002B0CBF00230123DBB2002B02D04FF0010304E07B683A681A634FF00003184607F11007D5
S32D0000FCF0BD4680BD80B584B000AF786078684FF00001FFF77FFF0346FB73FB7B002B40F0AE807B681B78032BC8
S32D0000FD1840F095807B685B79002B00F090807B684FF000021A637B6803F1340318464FF000014FF40072FFF79E
S32D0000FD403FFF7B684FF0550283F832227B684FF0AA0283F833227B684FF0520283F834207B684FF0520283F83B
S32D0000FD6835207B684FF0610283F836207B684FF0410283F837207B684FF0720283F818227B684FF0720283F82F
S32D0000FD9019227B684FF0410283F81A227B684FF0610283F81B227B681B69DAB27B6883F81C227B681B699BB26E
S32D0000FDB84FEA2323DAB27B6883F81D227B681B694FEA1343DAB27B6883F81E227B681B694FEA1363DAB27B68D0
S32D0000FDE083F81F227B68DB68DAB27B6883F820227B68DB689BB24FEA2323DAB27B6883F821227B68DB684FEA69
S32D0000FE081343DAB27B6883F822227B68DB684FEA1363DAB27B6883F823227B6859787B6803F134027B685B69DC
S32D0000FE30084611461A464FF0010301F0ABFA7B684FF000025A717B685B7818464FF000014FF0000201F084FBD2
S32D0000FE580346002B0CBF00230123DBB2002B02D04FF00103FB73FB7B184607F11007BD4680BD00BF80B582B072
S32D0000FE8000AF78600B467B807B68002B08D07B681B78002B04D07B68DB887A889A4202D04FF009030FE07B6813
S32D0000FEA85B78184601F0ECFB034603F00103DBB2002B02D04FF0030301E04FF00003184607F10807BD4680BD4C
S32D0000FED080B586B000AF78607B681A687B689B8810461946FFF7CAFF0346FB75FB7D002B40F0C8807B689B7968
S32D0000FEF803F02003002B00F0C1807B689B7903F04003002B20D07B681B6859787B6803F128027B689B690846B5
S32D0000FF2011461A464FF0010301F034FA0346002B0CBF00230123DBB2002B02D04FF00103A1E07B689B7923F0BC
S32D0000FF484003DAB27B689A717B681A687B68DB6910461946FFF752FE0346FB75FB7D002B40F08C807B681B6A47
S32D0000FF703B613B6903F10B033A6902F10B02127842F02002D2B21A703B6903F11C037A68D268D2B21A703B690D
S32D0000FF9803F11D037A68D26892B24FEA2222D2B21A703B6903F11E037A68D2684FEA1242D2B21A703B6903F134
S32D0000FFC01F037A68D2684FEA1262D2B21A703B6903F11A037A681269D2B21A703B6903F11B037A68126992B2A3
S32D0000FFE84FEA2222D2B21A703B6903F114037A6812694FEA1242D2B21A703B6903F115037A6812694FEA12421F
S32D0001001092B24FEA2222D2B21A704FF00003FB603B6903F11603FA68D2B21A703B6903F11703FA6892B24FEAA3
S32D000100382222D2B21A703B6903F11803FA684FEA1242D2B21A703B6903F11903FA684FEA1262D2B21A707B68E3
S32D000100609B7923F02003DAB27B689A717B681B684FF001021A717B681B681846FFF73AFE0346FB75FB7D1846F9
S32D0001008807F11807BD4680BD80B584B000AF78607868FFF719FF0346FB73FB7B002B03D17B684FF000021A604A
S32D000100B0FB7B184607F11007BD4680BD80B588B000AF786039604FF080033B614FF00F03FB604FF0FF337B611A
S32D000100D84FF00203FB612AE04FF00103BB611AE0FB69BA6902FB03F33A6802FB03F27B68D31ABB60BB68002BAF
S32D0001010009DBBA687B699A4205D2BB687B61FB693B61BB69FB60BB6903F10103BB61BB69102B8CBF002301238C
S32D00010128DBB2002BDCD1FB694FEA4303FB61FB69B3F5807F8CBF00230123DBB2002BCBD14FF48053C4F20B0339
S32D000101504FF48052C4F20B02D26A22F00802DA624FF48053C4F20B03DB6A1A464FF00F03CFF6F0731340BB61AD
S32D000101784FF48053C4F20B033A694FEA52024FEA02224FEA02424FEA1242F96801F1FF314FEA0111C9B211434A
S32D000101A0BA690A4342F46022DA6203E04FF00A0001F0B2FB4FF48053C4F20B035B6A03F00803002B14BF002344
S32D000101C80123DBB2002BEDD14FF48053C4F20B034FF48052C4F20B02D26A42F00802DA624FF48053C4F20B032E
S32D000101F04FF48052C4F20B02126B42F480121A6307F12007BD4680BD80B582B000AF786039607B684FF000023C
S32D000102181A604FF48053C4F20B034FF40042C0F20012DA624FF48053C4F20B03DB6A03F08073002B0CBF0023C0
S32D000102400123DBB2002BF1D14FF48053C4F20B034FF00002C3F8C0204FF48053C4F20B034FF481325A604FF46E
S32D000102688053C4F20B034FF028029A624FF48053C4F20B034FF001125A643B689B6818464CF66041C0F20501E2
S32D00010290FFF714FF4FF48053C4F20B035B6A03F00303002B0CBF00230123DBB2002BF1D14FF45043C4F2040354
S32D000102B840F243421A604FF45043C4F2040340F243425A604FF45043C4F204034FF488629A604FF45043C4F29C
S32D000102E0040340F24342DA604FF45043C4F2040340F243421A614FF45043C4F2040340F243425A614FF4E043C7
S32D00010308C4F204034FF4E042C4F2040202F5805202F13002126842F4003203F5805303F130031A604FF4805396
S32D00010330C4F20B034FF6FF721A634FF48053C4F20B034FF0B302C0F27F025A634FF48053C4F20B034FF48052FA
S32D00010358C4F20B02D26A42F00062DA624FF48053C4F20B03DB6A03F00063002B0CBF00230123DBB2002BF1D17B
S32D000103804FF48053C4F20B035B6A03F48033002B0CBF00230123DBB2002B03D07B684FF001021A604FF4805388
S32D000103A8C4F20B034FF48052C4F20B02126B42F080021A634FF00003184607F10807BD4680BD00BF80B400AF53
S32D000103D04FF48053C4F20B035B6A1A4640F207331340002B0CBF00230123DBB21846BD4680BC704780B485B0B9
S32D000103F800AF78604FF48053C4F20B031B6B1A467B681340FB60FB68002B14BF00230123DBB2002BEED1FB687C
S32D00010420184607F11407BD4680BC704780B584B000AF78607B681B7803F03F0247F24063C0F2010353F822307D
S32D00010448FB60FB68002B06D17B681B78002B02D04FF0010330E14FF48053C4F20B034FF48052C4F20B02126BCF
S32D0001047042F080021A634FF48053C4F20B035B6A03F00103DBB2002BF5D14FF48053C4F20B037A6852689A60A8
S32D00010498FB6823F44003FB607B685B784FEA835303F44003FA681343FB607B685B78022B03D1FB6843F40013A7
S32D000104C0FB607B685B78042B16D1FB6803F44033B3F5003F08D1FB6823F44033FB60FB6843F44033FB6007E0C2
S32D000104E8FB6823F44033FB60FB6843F40033FB604FF48053C4F20B034FF48052C4F20B0252684FEA02424FEA53
S32D0001051012425A607B68DB68002B32D0FB6803F44033B3F5403F03D0FB6843F40013FB607B681B7A002B03D016
S32D00010538FB6843F01003FB607B68DB68012B03D9FB6843F02003FB607B68DB68B3F1FF3F13D04FF48053C4F297
S32D000105600B034FF48052C4F20B02526811467A68D2684FEA02420A435A60FB6843F00203FB604FF48053C4F213
S32D000105880B034FF000021A604FF48053C4F20B03FA68DA604FF00100C0F20E00FFF726FF0346012B0CBF002387
S32D000105B00123DBB2002B10D04FF48053C4F20B034FF48052C4F20B02126B42F4702242F001021A634FF0010374
S32D000105D872E04FF48053C4F20B031B6B03F08003002B0CBF00230123DBB2002B0ED04FF48053C4F20B034FF4DC
S32D000106008052C4F20B02126B42F001121A634FF0010355E04FF48053C4F20B031B6B03F48033002B0CBF00235C
S32D000106280123DBB2002B0ED04FF48053C4F20B034FF48052C4F20B02126B42F001121A634FF0FF3338E0FB680C
S32D0001065003F44033002B25D04FF48053C4F20B031B691A467B681A61FB6803F44033B3F5803F17D14FF48053A3
S32D00010678C4F20B035B691A467B685A614FF48053C4F20B039B691A467B689A614FF48053C4F20B03DB691A4633
S32D000106A07B68DA614FF48053C4F20B034FF48052C4F20B02126B42F001021A634FF00003184607F11007BD467A
S32D000106C880BD00BF80B592B000AF786039604FF00003FB633B68BB6341F24C13C1F6FF737B637B6B002B03D191
S32D000106F040F6012300F0A0BC41F25033C1F6FF733B633B6B002B03D140F60B2300F094BC3B6B1B68FB62FB6A84
S32D00010718002B03D140F60B2300F08ABC7B6841F20432934200F0388241F2043293421BD841F20132934238D0DA
S32D0001074041F20132934207D8032B00F03D84092B00F0298400F066BC41F20232934200F0128241F203329342B1
S32D0001076800F0BE8300F05ABC41F20732934200F04B8341F2073293420BD841F20532934200F0348241F20632B8
S32D00010790934200F0108300F045BC41F20832934200F0B68241F20932934200F0C48200F039BC786B47F2346178
S32D000107B8C0F20101FFF724FD0346FB63FB6B002B40F030844FF0000387F847304FF0000387F82B304FF0000395
S32D000107E087F82A304FF0000387F829304FF0000387F846304FF0000387F828304FF000033B724FF000037B7289
S32D000108084FF00003FB604FF000033B744FF000037B6107F108031846FFF704FE0346002B0CBF00230123DBB2A9
S32D00010830002B03D04FF00103FB63FCE340F24C4001F06AF84FF008033B724FF000037B724FF4D573FB604FF0BF
S32D0001085800033B744FF000037B6107F108031846FFF7E0FD03463B643B6C002B0BD1BA69FB689A4203D04FF063
S32D000108800103FB63D7E34FF0010387F846304FF0010387F8283097F82830002B00F0C6804FF037033B724FF02E
S32D000108A800037B724FF00003FB604FF000033B744FF000037B6107F108031846FFF7B2FD03463B643B6C002BC5
S32D000108D003D04FF00103FB63ADE34FF069033B724FF000037B724FF00003FB604FF000033B744FF000037B61C2
S32D000108F807F108031846FFF795FD0346002B0CBF00230123DBB2002B03D04FF00103FB638DE3BB6903F4401358
S32D00010920002B00F083804FF000033B644FF00A0000F0F2FF3B6C03F101033B644FF037033B724FF000037B72EC
S32D000109484FF00003FB604FF000033B744FF000037B6107F108031846FFF764FD0346002B0CBF00230123DBB209
S32D00010970002B03D04FF00103FB6336E04FF069033B724FF000037B7297F84630002B05D04FF00003C4F23003EC
S32D00010998FB6002E04FF44013FB604FF000033B744FF000037B6107F108031846FFF73AFD0346002B0CBF002303
S32D000109C00123DBB2002B03D04FF00103FB630CE0BB69002B05DB3B6C632B02D84FF0010301E04FF00003002BFD
S32D000109E8A0D1FB6B002B40F01F833B6C632B04D94FF0000387F8463014E04FF0010387F8473097F84630002B66
S32D00010A100CD04FF0000387F84630BB6903F08043002B03D04FF0010387F8463097F82A30002B03D07B6B4FF088
S32D00010A3807021A6097F82930002B03D07B6B4FF008021A6097F82B30002B03D07B6B4FF004021A6097F84730EA
S32D00010A60002B0BD07B6B4FF002021A6097F84630002B03D07B6B4FF003021A6097F82B30002B0FD097F847301D
S32D00010A88002B0BD07B6B4FF005021A6097F84630002B03D07B6B4FF006021A604FF45043C4F204034FF0000215
S32D00010AB01A604FF45043C4F204034FF000025A604FF45043C4F204034FF000029A604FF45043C4F204034FF06F
S32D00010AD80002DA604FF45043C4F204034FF000021A614FF45043C4F204034FF000025A61FB6A9A68FB6A5B6846
S32D00010B0010461946FFF7DAFA4FF45043C4F2040340F243421A604FF45043C4F2040340F243425A604FF45043A9
S32D00010B28C4F204034FF488629A604FF45043C4F2040340F24342DA604FF45043C4F2040340F243421A614FF42E
S32D00010B505043C4F2040340F243425A614FF4E043C4F204034FF4E042C4F2040202F5805202F13002126842F4D2
S32D00010B78003203F5805303F130031A6057E2B86BFFF750FC03463B643B6C002B00F04E824FF00203FB6349E2CB
S32D00010BA0BB6B002B03D14FF00C03FB6343E24FF48053C4F20B03DB6A03F47F434FEA13234FEA43033B644FF488
S32D00010BC88053C4F20B03DB6A03F0F0034FEA131303F101023B6C02FB03F33B64FB6A9A683B6CB2FBF3F2BB6BE7
S32D00010BF01A6020E2BB6B002B03D14FF00C03FB6319E2BB6B1B68002B03D14FF00C03FB6311E2FFF7DBFB034632
S32D00010C18002B14BF00230123DBB2002B70D04FF45043C4F204034FF000021A604FF45043C4F204034FF000024E
S32D00010C405A604FF45043C4F204034FF000029A604FF45043C4F204034FF00002DA604FF45043C4F204034FF01D
S32D00010C6800021A614FF45043C4F204034FF000025A61FB6A9A68BB6B1B6810461946FFF719FA4FF45043C4F2F7
S32D00010C90040340F243421A604FF45043C4F2040340F243425A604FF45043C4F204034FF488629A604FF4504369
S32D00010CB8C4F2040340F24342DA604FF45043C4F2040340F243421A614FF45043C4F2040340F243425A614FF452
S32D00010CE0E043C4F204034FF4E042C4F2040202F5805202F13002126842F4003203F5805303F130031A6096E131
S32D00010D0840F60A23FB6392E1BB6B002B03D14FF00C03FB638BE14FF48053C4F20B035B684FEAC3434FEAD34320
S32D00010D30BA6B13607FE1BB6B002B03D14FF00C03FB6378E1FFF742FB0346002B14BF00230123DBB2002B2AD0FF
S32D00010D58BB6B1A6840F6FF739A4203D94FF00C03FB6364E14FF48053C4F20B034FF48052C4F20B02526822F4F1
S32D00010D80FE5222F03F025A604FF48053C4F20B034FF48052C4F20B0252681146BA6B12684FEAC2424FEAD242FB
S32D00010DA80A435A6043E140F60A23FB633FE1BB6B002B03D14FF00C03FB6338E14FF48053C4F20B039B6A03F054
S32D00010DD006034FEA53033B643B6C002B04D1BB6B4FF000021A6026E13B6C012B04D1BB6B4FF001021A601EE1A5
S32D00010DF83B6C102B04D1BB6B4FF002021A6016E14FF00503FB6312E1BB6B002B03D14FF00C03FB630BE1FFF7F0
S32D00010E20D5FA0346002B14BF00230123DBB2002B56D0BB6B1B68002B16D14FF48053C4F20B034FF48052C4F208
S32D00010E480B02926A22F006029A624FF48053C4F20B034FF48052C4F20B02926A9A62E6E0BB6B1B68012B18D12E
S32D00010E704FF48053C4F20B034FF48052C4F20B02926A22F006029A624FF48053C4F20B034FF48052C4F20B02DD
S32D00010E98926A42F002029A62C9E0BB6B1B68022B16D14FF48053C4F20B034FF48052C4F20B02926A22F00602CF
S32D00010EC09A624FF48053C4F20B034FF48052C4F20B02926A9A62AEE04FF00503FB63AAE040F60A23FB63A6E059
S32D00010EE8BB6B002B03D14FF00C03FB639FE04FF48053C4F20B034FF48052C4F20B02D26A42F00062DA624FF48A
S32D00010F108053C4F20B03DB6A03F00063002B0CBF00230123DBB2002BF1D14FF48053C4F20B031B6B03F08003F3
S32D00010F38002B0CBF00230123DBB2002B0FD04FF48053C4F20B034FF48052C4F20B02126B42F080021A637B6B70
S32D00010F604FF000021A604FF48053C4F20B035B6A03F48033002B0CBF00230123DBB2002B08D07B6B1B68002BFD
S32D00010F8808D17B6B4FF001021A6003E07B6B4FF000021A607B6B1A68BB6B1A6047E0BB6B4FF01C021A60BB6BE9
S32D00010FB003F104034FF004021A60BB6B03F108034FF41E721A6036E04FF00200FFF712FA4FF48053C4F20B03B3
S32D00010FD81B6B03F4E003002B0CBF00230123DBB2002B0ED04FF48053C4F20B034FF48052C4F20B02126B42F452
S32D00011000E0021A634FF00403FB634FF48053C4F20B034FF48052C4F20B02126B42F032021A6308E040F6092362
S32D00011028FB6304E000BF02E000BF00E000BFFB6B184607F14807BD4680BD00BF80B489B000AF786039607B68DE
S32D000110507B6141F24C13C1F6FF733B613B69002B02D14FF0000381E03B691B68022B0BD03B691B68032B07D09E
S32D000110783B691B68072B03D03B691B68082B0DD14FF48053C4F20B035B6A03F00403002B0CBF00230123DBB282
S32D000110A0002BF1D13B68FB6156E0FB69B3F5007F28BF4FF40073FB60FB6803F103034FEA9303BB613CE04FF4D5
S32D000110C88053C4F20B031B6B03F4E003002B0CBF00230123DBB2002B10D04FF48053C4F20B034FF48052C4F288
S32D000110F00B02126B42F4E00242F020021A634FF0000333E04FF48053C4F20B035B6A03F40063002B14BF0023EF
S32D000111180123DBB2002BF1D14FF48053C4F20B031B6A1A467B691A607B6903F104037B61BB6903F1FF33BB61CC
S32D00011140BB69002B0CBF00230123DBB2002BBAD1FA69FB68D31AFB61FB69002B0CBF00230123DBB2002BA0D103
S32D000111684FF00103184607F12407BD4680BC704780B58EB000AFB9607A600246FA73BB7341F23813C1F6FF73FF
S32D000111907B63FB7B002B02D1BB7B002B02D14FF0040381E040F20043C1F6FF731B78DBB203F00103DBB2002B96
S32D000111B802D04FF0030373E0BB68002B02D14FF000036DE07B6B1B7B002B03D17B684FEA43237B60BB7B012BB4
S32D000111E02CD14FF011033B754FF000037B757B68BB614FF001033B77BB7B3B6207F1140341F202301946FFF71E
S32D0001120861FA0346002B14BF00230123DBB2002B3ED0B8684FF40071FFF710FF0346002B0CBF00230123DBB21C
S32D00011230002B31D04FF00003BB732DE04FF012033B754FF000037B757B68BB614FF001033B77BB7B3B6207F1F1
S32D00011258140341F202301946FFF734FA0346002B14BF00230123DBB2002B11D0BB7B4FEA4323B8681946FFF7F7
S32D00011280E1FE0346002B0CBF00230123DBB2002B02D04FF00003BB73BB7B002B02D04FF0010301E04FF0000347
S32D000112A8184607F13807BD4680BD00BF80B487B000AF786039607B68FB603B687B6155E07B69B3F5007F28BF14
S32D000112D04FF400733B617A693B69D31A7B613B6903F103034FEA93033B613BE04FF48053C4F20B031B6B03F4D2
S32D000112F8E003002B0CBF00230123DBB2002B10D04FF48053C4F20B034FF48052C4F20B02126B42F4E00242F096
S32D0001132010021A634FF0FF332EE04FF48053C4F20B035B6A03F48063002B14BF00230123DBB2002BF1D14FF415
S32D000113488053C4F20B03FA6812681A62FB6803F10403FB603B6903F1FF333B613B69002B0CBF00230123DBB2FA
S32D00011370002BBBD17B69002B0CBF00230123DBB2002BA1D14FF00103184607F11C07BD4680BC704780B58EB027
S32D0001139800AFB9607A600246FA73BB7341F23813C1F6FF737B63FB7B002B02D1BB7B002B02D14FF00403CAE084
S32D000113C040F20043C1F6FF731B78DBB203F00103DBB2002B02D04FF00303BCE040F20043C1F6FF731B78DBB220
S32D000113E803F00403002B0CBF00230123DBB2002B02D04FF00203AAE0BB68002B02D14FF00003A4E07B6B1B7BE4
S32D00011410002B03D17B684FEA43237B60BB7B012B2CD14FF018033B754FF000037B757B68BB614FF000033B77C3
S32D00011438BB7B3B6207F1140341F202301946FFF741F90346002B14BF00230123DBB2002B3ED0B8684FF4007187
S32D00011460FFF728FF0346002B0CBF00230123DBB2002B31D04FF00003BB732DE04FF019033B754FF000037B7547
S32D000114887B68BB614FF000033B77BB7B3B6207F1140341F202301946FFF714F90346002B14BF00230123DBB27E
S32D000114B0002B11D0BB7B4FEA4323B8681946FFF7F9FE0346002B0CBF00230123DBB2002B02D04FF00003BB7340
S32D000114D84FF00D033B754FF000037B757B6B1B69BB614FF000033B774FF000033B6207F1140341F20230194688
S32D00011500FFF7E4F80346002B0CBF00230123DBB2002B02D04FF001031DE07A6A48F20803CFF6D9731340002BE2
S32D0001152802D04FF0010312E07B6A03F4F853B3F5106F0CBF00230123DBB2002BC8D1BB7B002B02D04FF0010366
S32D0001155001E04FF00003184607F13807BD4680BD80B58CB000AF0B463A600246FA71BB7141F23813C1F6FF73E3
S32D00011578BB62FB79002B02D04FF004037AE04FF0010387F82F3040F20043C1F6FF731B78DBB203F00103DBB2B3
S32D000115A0002B02D04FF0030368E0BB79032B5FD801A252F823F000BFC9150100D3150100E5150100F71501006A
S32D000115C84FF0000387F82F3052E0BB6A9A683B681A604FF0000387F82F3049E03B684FF400721A804FF00003E1
S32D000115F087F82F3040E04FF009033B724FF000037B72BB6A1B69FB604FF000033B744FF000037B6107F1080391
S32D0001161841F202301946FFF755F80346002B0CBF00230123DBB2002B02D04FF0010321E07B6A03F44003002BFE
S32D0001164011D13B6A4FEA934303F07F0303F101027B6A4FEA132303F0030303F1FF3302FA03F23B681A604FF0B9
S32D00011668000387F82F3003E04FF0040387F82F3097F82F30184607F13007BD4680BD00BF80B483B000AF034692
S32D00011690FB71FB79002B02D04FF0010305E040F20043C1F6FF731B78DBB2184607F10C07BD4680BC704700BF4A
S32D000116B880B483B000AF78604FF4E043C4F204034FF4E042C4F2040202F5805202F13802126842F0010203F534
S32D000116E0805303F138031A604FF00003C4F204037A689A604FF00003C4F204034FF005025A604FF00003C4F28D
S32D0001170804034FF00002C4F20402126842F001021A6000BF4FF00003C4F204031B6803F08003002B14BF0023AD
S32D000117300123DBB2002BF1D14FF00003C4F204034FF00002C4F20402126822F001021A6007F10C07BD4680BC9D
S32D00011758704700BF80B582B000AF786039607B68012B0AD13A684FF6FF739A4205D141F25830C1F6FF7000F09F
S32D000117800FF807F10807BD4680BD00BF80B500AF4FF001004FF6FF71FFF7E0FF80BD00BF80B483B000AF786095
S32D000117A87B684FF000021A707B68184607F10C07BD4680BC704700BF80B582B000AF78607B681B7883F0010388
S32D000117D0DBB2002B36D04FF4E043C4F2040303F5805303F128034FF400621A604FF45043C4F204034FF4407278
S32D000117F81A624FF45043C4F204034FF440725A6241F25C33C1F6FF731B684FEAD372D3184FEA63034FF43040D9
S32D00011820C4F20E0019464FF46142FEF7A9F84FF0640000F071F87B684FF001021A704FF0010301E04FF00003E9
S32D00011848184607F10807BD4680BD00BF80B487B000AFF860B9607A60FA6844F6D353C1F26203A3FB02134FEAE2
S32D000118709312BB68D3187B61FA6844F6D353C1F26203A3FB02134FEA93134FF47A7101FB03F3D31AFB60FB6883
S32D000118984FEAC33244F6D353C1F26203A3FB02134FEA93127B68D3183B613B694FEAD3337A69D3187B613B694F
S32D000118C04FEA43434FEA53433B614FF45043C4F203031B681A467B699A4211D34FF45043C4F203031B681A4641
S32D000118E87B699A420BD14FF45043C4F203035B681A463B699A4202D24FF0010301E04FF00003002BDDD107F1F5
S32D000119101C07BD4680BC704780B584B000AF78604FF45043C4F203031B68FB604FF45043C4F203035B68BB60BF
S32D000119387B681846F968BA68FFF788FF07F11007BD4680BD0000000080B584B000AFC7E900014FF45043C4F29B
S32D0001196003031B68FB604FF45043C4F203035B68BB60D7E900010AA3D3E90023FAF700FF02460B461046194679
S32D00011988FBF734F903461846F968BA68FFF75EFF07F11007BD4680BD0000000000408F4080B584B000AF4FF4DB
S32D000119B05043C4F203031B68FB604FF45043C4F203035B68BB60F868FAF764FE02460B46C7E90023B868FAF73B
S32D000119D85DFE02460B46104619464FF000024FF0804303F56003FAF7F1FF02460B46D7E90001FAF70FFD024619
S32D00011A000B46C7E90023D7E900231046194607F11007BD4680BD00BFB0B48BB000AF47F28853C0F2010307F1DD
S32D00011A2804041D460FCD0FC495E80F0084E80F004FF000037B6248E04FF42043C4F20403D3F8A0301A467B6AE4
S32D00011A504FEA830307F12800C31853F8243C4FF0010101FA03F31340002B0CBF00230123DBB2002B29D041F25C
S32D00011A788833C1F6FF737A6A53F8223003F1010141F28833C1F6FF737A6A43F822104FF42043C4F204034FF4D6
S32D00011AA02042C4F20402D2F8A02011467A6A4FEA820207F12800821852F8242C4FF0010000FA02F20A40C3F8F0
S32D00011AC8A0207B6A03F101037B627B6A072BCCBF00230123DBB2002BAED107F12C07BD46B0BC7047B0B489B067
S32D00011AF000AF47F2A853C0F2010307F104041D460FCD0FC495E8030084E803004FF00003FB6149E04FF43043B0
S32D00011B18C4F20403D3F8A0301A46FB694FEA830307F12000C31853F81C3C4FF0010101FA03F31340002B0CBFB2
S32D00011B4000230123DBB2002B2AD0FB6903F1080241F28833C1F6FF7353F8223003F1010141F28833C1F6FF735A
S32D00011B6843F822104FF43043C4F204034FF43042C4F20402D2F8A0201146FA694FEA820207F12000821852F800
S32D00011B901C2C4FF0010000FA02F20A40C3F8A020FB6903F10103FB61FB69052BCCBF00230123DBB2002BADD197
S32D00011BB807F12407BD46B0BC704700BFB0B48DB000AF47F2C053C0F201033C461D460FCD0FC40FCD0FC495E8E4
S32D00011BE0070084E807004FF00003FB6249E04FF41043C4F20403D3F8A0301A46FB6A4FEA830307F13000C3181F
S32D00011C0853F8303C4FF0010101FA03F31340002B0CBF00230123DBB2002B2AD0FB6A03F10E0241F28833C1F674
S32D00011C30FF7353F8223003F1010141F28833C1F6FF7343F822104FF41043C4F204034FF41042C4F20402D2F88E
S32D00011C58A0201146FA6A4FEA820207F13000821852F8302C4FF0010000FA02F20A40C3F8A020FB6A03F101036D
S32D00011C80FB62FB6A0A2BCCBF00230123DBB2002BADD107F13407BD46B0BC7047B0B487B000AF47F2EC53C0F269
S32D00011CA801033C461D460FCD0FC42B6823604FF000037B6149E04FF45043C4F20403D3F8A0301A467B694FEA6D
S32D00011CD0830307F11800C31853F8183C4FF0010101FA03F31340002B0CBF00230123DBB2002B2AD07B6903F189
S32D00011CF8190241F28833C1F6FF7353F8223003F1010141F28833C1F6FF7343F822104FF45043C4F204034FF49E
S32D00011D205042C4F20402D2F8A02011467A694FEA820207F11800821852F8182C4FF0010000FA02F20A40C3F85A
S32D00011D48A0207B6903F101037B617B69042BCCBF00230123DBB2002BADD107F11C07BD46B0BC704780B483B031
S32D00011D7000AF78600B46FB707B68FA781A707B68184607F10C07BD4680BC704780B586B000AF78607B681B7878
S32D00011D981A4647F26473C0F2010353F822303B617B681B781A4647F24073C0F201039B5CFB733B69DBB203F0BC
S32D00011DC01F03DAB241F27833C1F6FF731A723B69DBB203F01F03DAB241F27833C1F6FF735A72FB7B002B1ED17E
S32D00011DE84FF43040C4F2030041F27831C1F6FF7100F04CFA4FF43043C4F203031B6803F08003002B14BF00239B
S32D00011E100123DBB2002BF1D14FF43043C4F203031B697B611DE04FF43040C4F20B0041F27831C1F6FF7100F0CF
S32D00011E382DFA4FF43043C4F20B031B6803F08003002B14BF00230123DBB2002BF1D14FF43043C4F20B031B6924
S32D00011E607B617B69184607F11807BD4680BD00BF98B500AF41F26833C1F6FF734FF05C021A7041F26833C1F680
S32D00011E88FF734FF010025A7041F26833C1F6FF7341F234225A8041F26833C1F6FF7345F278629A8041F2683354
S32D00011EB0C1F6FF734FF010029A7141F26833C1F6FF734FF00702DA7141F26833C1F6FF734FF4C022DA6041F26B
S32D00011ED86833C1F6FF734FF01F021A7241F26833C1F6FF734FF01F025A724FF43040C4F2030041F26831C1F619
S32D00011F00FF7100F0C7F94FF43040C4F20B0041F26831C1F6FF7100F0BDF94FF43040C4F20B0000F011F94FF4D4
S32D00011F283040C4F2030000F00BF94FF43040C4F20B0041F26831C1F6FF7100F0A7F94FF43040C4F2030041F2D7
S32D00011F506831C1F6FF7100F09DF941F27832C1F6FF7241F26833C1F6FF7314460FCB84E80F0041F27833C1F6DC
S32D00011F78FF734FF05C021A7041F27833C1F6FF734FF00402DA7198BD80B500AF41F20C43C1F6FF731B6803F1AF
S32D00011FA0010241F20C43C1F6FF731A6000F04CF84FF4E043C4F203034FF00102C3F80C2180BD00BF80B500AF8A
S32D00011FC84FF4E043C4F203034FF001021A6048F2A060C0F2010000F023F84FF4E043C4F203034FF00302C3F8F3
S32D00011FF008214FF46143CEF200034FF46142CEF20002D2F8882142F01002C3F888214FF46143CEF200034FF43F
S32D000120186142CEF20002926842F010029A6080BD80B483B000AF78604FF4E043C4F203037A68C3F8002107F1F9
S32D000120400C07BD4680BC704780B584B000AF41F20843C1F6FF731B68FB6029E0FB685B78FB71FB689B6818465C
S32D0001206800F02EF80346BB71BB79002B19D0FB685B68012B15DDFB689B681B69BB6008E0BB685B6803F1010268
S32D00012090BB685A60BB681B69BB60BB68002B0CBF00230123DBB2002BEED1FB68DB68FB60FB68002B0CBF00232E
S32D000120B80123DBB2002BCDD107F11007BD4680BD80B584B000AF78607868FFF75BFE0346FB607B689B695B78B3
S32D000120E0FB72FB7A002B12D17B68DA68FB689A420DDA7B689B694FF001025A707B685B6803F101027B685A6069
S32D000121084FF0010317E0FB7A012B12D17B689A68FB689A420DDD7B689B694FF000025A707B685B6803F101024D
S32D000121307B685A604FF0010301E04FF00003184607F11007BD4680BD80B485B000AF78607B681B6A23F0400223
S32D000121587B681A627B685B6A23F00B027B685A627B685B6A43F007027B685A627B685B6A43F080027B685A6213
S32D000121807B681B6803F08003002B14BF00230123DBB2002BF4D17B685B6A03F04003002B0CBF00230123DBB2EA
S32D000121A8002B02D04FF0010369E04FF00003FB817B68DB6CFB817B689B6C9AB2FB89D318FB817B685B6C9AB204
S32D000121D0FB89D318FB817B681B6C9AB2FB89D318FB817B68DB6B9AB2FB89D318FB817B689B6B9AB2FB89D31850
S32D000121F8FB81FB894FEA5303FB81FB896FEA43436FEA5343FB81FA897B68DA624FF00003FB817B68DB6EFB81D7
S32D000122207B689B6E9AB2FB89D318FB817B685B6E9AB2FB89D318FB817B681B6E9AB2FB89D318FB817B68DB6DBB
S32D000122489AB2FB89D318FB817B689B6D9AB2FB89D318FB81FB894FEA5303FB81FB896FEA43436FEA5343FB81B1
S32D00012270FA897B681A637B685B6A23F080027B685A624FF00003184607F11407BD4680BC704700BF80B483B0B1
S32D0001229800AF786039603B681B781A467B689A603B685B781A467B68DA603B685B881A467B689A613B689B8807
S32D000122C01A467B68DA613B689B791A467B681A623B68DB791A467B685A623B68DA687B681A653B681B7A1A4626
S32D000122E87B681A603B685B7A1A467B685A6007F10C07BD4680BC704780B483B000AF78607B68184607F10C07BA
S32D00012310BD4680BC704700BF80B582B000AF786039607B68012B0AD13A684FF6FF739A4205D141F21040C1F633
S32D00012338FF70FFF7E1FF07F10807BD4680BD00BF80B500AF4FF001004FF6FF71FFF7E0FF80BD00BF80B582B01A
S32D0001236000AF78604FF43043C4F204034FF48072DA604FF42043C4F204034FF480729A644FF42043C4F20403EC
S32D000123884FF480721A644FF42043C4F204034FF480725A644FF42043C4F204034FF48072DA604FF28003C4F2D1
S32D000123B00F034FF28002C4F20F02526942F008025A614FF24003C4F20F034FF24002C4F20F02526942F4802287
S32D000123D85A614FF24003C4F20F034FF24002C4F20F02526942F480325A614FF24003C4F20F034FF24002C4F2A2
S32D000124000F02526942F400325A614FF24003C4F20F034FF24002C4F20F02126842F008021A604FF24003C4F2BE
S32D000124280F034FF24002C4F20F02526942F008025A614FF28003C4F20F034FF28002C4F20F02126842F00802AB
S32D000124501A604FF42043C4F204034FF480725A624FF42043C4F204034FF480721A624FF43043C4F204034FF4C5
S32D0001247880721A614FF43043C4F204034FF480725A614FF43043C4F204034FF480729A614FF43043C4F204034F
S32D000124A04FF48072DA614FF43043C4F204034FF480721A634FF43043C4F204034FF480725A634FF43043C4F2A7
S32D000124C804034FF480729A634FF43043C4F204034FF48072DA634FF43043C4F204034FF480721A644FF43043EB
S32D000124F0C4F204034FF480725A644FF43043C4F204034FF480729A644FF43043C4F204034FF48072DA644FF43E
S32D000125184043C4F204034FF480721A604FF44043C4F204034FF480729A604FF44043C4F204034FF48072DA6001
S32D000125404FF44043C4F204034FF480721A614FF24003C4F20F034FF24002C4F20F02526942F440725A614FF204
S32D000125688002C4F20F024FF28003C4F20F035B6919464FF2F003C0F20F030B4353614FF2C003C4F20F034FF245
S32D00012590C002C4F20F02526942F01D025A6178684FF0E20100F086FE78684FF01D0100F0C5FF78684FF0020143
S32D000125B800F0C0FF78684FF0040100F0BBFF78684FF0E00100F072FE78684FF0010100F0B1FF4FF06400FFF7BD
S32D000125E09BF978684FF0E00100F064FE78684FF0030100F0A3FF78684FF0010100F05AFE4FF00100FFF788F911
S32D0001260878684FF0E60100F051FE78684FF0010100F090FF78684FF0A00100F08BFF78684FF0FF0100F086FFF0
S32D0001263078684FF0B00100F03DFE78684FF01C0100F07CFF78684FF00F0100F077FF78684FF0010100F072FFC2
S32D0001265878684FF03F0100F06DFF78684FF0000100F068FF78684FF0EF0100F063FF78684FF0000100F05EFF53
S32D0001268078684FF0B40100F015FE78684FF0010100F054FF78684FF0990100F04FFF78684FF0000100F04AFFA0
S32D000126A878684FF0450100F045FF78684FF0020100F040FF78684FF0000100F03BFF78684FF0000100F036FF8A
S32D000126D078684FF0000100F031FF78684FF0B60100F0E8FD78684FF0010100F027FF78684FF0090100F022FF7F
S32D000126F878684FF0000100F01DFF78684FF00E0100F018FF78684FF0020100F013FF78684FF0000100F00EFF11
S32D0001272078684FF0000100F009FF78684FF0BA0100F0C0FD78684FF00F0100F0FFFE4FF06400FFF7E9F8786875
S32D000127484FF03A0100F0B2FD78684FF0600100F0F1FE78684FF02A0100F0A8FD78684FF0000100F0E7FE786836
S32D000127704FF0000100F0E2FE78684FF0010100F0DDFE78684FF03F0100F0D8FE78684FF02B0100F08FFD786872
S32D000127984FF0000100F0CEFE78684FF0000100F0C9FE78684FF0000100F0C4FE78684FF0EF0100F0BFFE7868D1
S32D000127C04FF0360100F076FD78684FF0000100F0B5FE78684FF0F00100F06CFD78684FF0040100F0ABFE786848
S32D000127E84FF0B80100F062FD78684FF00F0100F0A1FE78684FF0010100F09CFE4FF24003C4F20F034FF2400243
S32D00012810C4F20F02126842F008021A604FF06400FFF77AF878684FF0360100F043FD78684FF0000100F082FE81
S32D0001283878684FF0F00100F039FD78684FF0040100F078FE41F21440C1F6FF704FF0010100F03EFA41F2144014
S32D00012860C1F6FF704FF06F014FF01E0200F0B2F841F21440C1F6FF704FF056014FF0AF0200F028F941F21440B0
S32D00012888C1F6FF704FF0000100F074FA41F21440C1F6FF7047F20061C0F201014FF001024FF0010300F08EFA65
S32D000128B078684FF0290100F0FDFC4FF06400FFF72BF878684FF0BE0100F0F4FC78684FF00E0100F033FE78681E
S32D000128D84FF0F00100F02EFE78684FF0010100F029FE78684FF0000100F024FE78684FF0000100F01FFE78680E
S32D000129004FF00F0100F01AFE786800F0A9FA41F21440C1F6FF704FF0010100F02FFA41F21440C1F6FF704FF0EB
S32D00012928000100F0FFF907F10807BD4680BD00BF80B582B000AF78607B684FF00002DA617B684FF001021A62A3
S32D000129507B684FF00E025A607B684FF01A029A607B684FF000025A617B684FF000029A617B684FF4A072DA60C4
S32D000129787B684FF0F0021A617B684FF000021A70786801F055FD7B68184607F10807BD4680BD00BF80B582B022
S32D000129A000AF786041F25843C1F6FF731B7883F00103DBB2002B09D041F25843C1F6FF734FF001021A7078684C
S32D000129C8FFF7C8FC07F10807BD4680BD80B58AB002AFF860B9607A604FF07E030093F868B9687A684FF062031A
S32D000129F001F096F840F24E733B614FF00003FB615BE04FF00003BB6143E0FB6903F1010240F20443C1F6FF7353
S32D00012A189B5C002B09D14FF0FF03FB754FF0FF03BB754FF0FF037B751CE0FB6903F1010240F20443C1F6FF7347
S32D00012A409B5C012B09D14FF0D403FB754FF00003BB754FF026037B7508E04FF0B503FB754FF0BA03BB754FF060
S32D00012A68B0037B75F97DBA7D7B7DF86800F00EF90246FB68DA61F86801F0DAFCF86801F077FBBB6903F10103B4
S32D00012A90BB6140F20443C1F6FF73FA699B181B781A46BB699A42D4BF00230123DBB2002BABD1FB6903F10203E5
S32D00012AB8FB61FA693B699A42ACBF00230123DBB2002B9AD107F12007BD4680BD80B58AB002AFF860B9607A6011
S32D00012AE04FF027030093F868B9687A684FF0950301F016F840F2E6333B614FF00003FB615BE04FF00003BB6174
S32D00012B0843E0FB6903F1010240F65433C1F6FF739B5C002B09D14FF0FF03FB754FF0FF03BB754FF0FF037B75EB
S32D00012B301CE0FB6903F1010240F65433C1F6FF739B5C012B09D14FF00003FB754FF00003BB754FF000037B75E6
