S01100002E2E2F466C6F6F6449742E733139A7
S32D0000C000000000203D060100A5090100A5090100A5090100A5090100A509010000000000000000000000000043
S32D0000C02800000000A5090100A509010000000000A5090100A5090100A5090100A5090100A5090100A509010072
S32D0000C050A5090100A5090100A5090100A5090100A5090100A5090100A5090100A5090100A5090100A5090100EC
S32D0000C078A5090100A5090100A5090100A5090100A5090100A5090100A5090100A5090100A5090100A5090100C4
S32D0000C0A0A5090100A5090100A5090100A5090100A5090100A5090100A5090100A5090100A5090100A50901009C
S32D0000C0C8A5090100A5090100A5090100A5090100A5090100A5090100A5090100A5090100A5090100A509010074
S32D0000C0F0A5090100618E0100A5090100A5090100A5090100A5090100A5090100A5090100A5090100A50901000B
S32D0000C118A5090100A5090100A5090100A5090100A5090100A5090100A5090100A5090100A5090100A509010023
S32D0000C140A5090100A5090100A5090100A509010091630100A5090100A5090100A5090100A5090100A5090100B5
S32D0000C168A5090100A5090100A5090100A5090100A5090100A5090100A5090100A5090100A5090100A5090100D3
S32D0000C190A5090100A5090100A5090100C55F0100195E0100ED5E0100F50901009D600100A5090100A509010030
S32D0000C1B8A5090100A5090100A5090100A5090100A5090100A5090100A5090100A5090100A5090100A509010083
S32D0000C41081F0004102E000BF83F0004330B54FEA41044FEA430594EA050F08BF90EA020F1FBF54EA000C55EAC6
S32D0000C438020C7FEA645C7FEA655C00F0E2804FEA5454D4EB5555B8BF6D420CDD2C4480EA020281EA030382EA0F
S32D0000C460000083EA010180EA020281EA0303362D88BF30BD11F0004F4FEA01314FF4801C4CEA113102D0404263
S32D0000C48861EB410113F0004F4FEA03334CEA133302D0524263EB430394EA050F00F0A780A4F10104D5F1200E8A
S32D0000C4B00DDB02FA0EFC22FA05F2801841F1000103FA0EF2801843FA05F359410EE0A5F120050EF1200E012A2D
S32D0000C4D803FA0EFC28BF4CF0020C43FA05F3C01851EBE37101F0004507D54FF0000EDCF1000C7EEB00006EEB67
S32D0000C5000101B1F5801F1BD3B1F5001F0CD349085FEA30004FEA3C0C04F101044FEA445212F5800F80F09A8000
S32D0000C528BCF1004F08BF5FEA500C50F1000041EB045141EA050130BD5FEA4C0C404141EB010111F4801FA4F114
S32D0000C5500104E9D191F0000F04BF01460020B1FA81F308BF2033A3F10B03B3F120020CDA0C3208DD02F1140C87
S32D0000C578C2F10C0201FA0CF021FA02F10CE002F11402D8BFC2F1200C01FA02F120FA0CFCDCBF41EA0C019040B1
S32D0000C5A0E41AA2BF01EB0451294330BD6FEA04041F3C1CDA0C340EDC04F11404C4F1200220FA04F001FA02F3B6
S32D0000C5C840EA030021FA04F345EA030130BDC4F10C04C4F1200220FA02F001FA04F340EA0300294630BD21FAA8
S32D0000C5F004F0294630BD94F0000F83F4801306BF81F480110134013D4EE77FEA645C18BF7FEA655C29D094EA1C
S32D0000C618050F08BF90EA020F05D054EA000C04BF1946104630BD91EA030F1EBF0021002030BD5FEA545C05D1A3
S32D0000C6404000494128BF41F0004130BD14F580043CBF01F5801130BD01F0004545F0FE4141F470014FF0000031
S32D0000C66830BD7FEA645C1ABF194610467FEA655C1CBF0B46024650EA013406BF52EA033591EA030F41F40021D7
S32D0000C69030BD00BF90F0000F04BF0021704730B54FF4806404F132044FF000054FF0000150E700BF90F0000F66
S32D0000C6B804BF0021704730B54FF4806404F1320410F0004548BF40424FF000013EE700BF42004FEAE2014FEAF9
S32D0000C6E031014FEA02701FBF12F07F4393F07F4F81F06051704792F0000F14BF93F07F4F704730B54FF460741B
S32D0000C70801F0004521F0004120E700BF50EA010208BF704730B54FF000050AE050EA010208BF704730B511F046
S32D0000C730004502D5404261EB41014FF4806404F132045FEA915C3FF4DCAE4FF003025FEADC0C18BF03325FEAA0
S32D0000C758DC0C18BF033202EBDC02C2F1200300FA03FC20FA02F001FA03FE40EA0E0021FA02F11444C1E600BF19
S32D0000C78070B54FF0FF0C4CF4E06C1CEA11541DBF1CEA135594EA0C0F95EA0C0F00F0DEF82C4481EA030621EAF3
S32D0000C7A84C5123EA4C5350EA013518BF52EA033541F4801143F4801338D0A0FB02CE4FF00005E1FB02E506F05F
S32D0000C7D00042E0FB03E54FF00006E1FB03569CF0000F18BF4EF0010EA4F1FF04B6F5007F64F5407404D25FEA0F
S32D0000C7F84E0E6D4146EB060642EAC62141EA55514FEAC52040EA5E504FEACE2EB4F1FD0C88BFBCF5E06F1ED8D2
S32D0000C820BEF1004F08BF5FEA500E50F1000041EB045170BD06F0004646EA010140EA020081EA0301B4EB5C0487
S32D0000C848C2BFD4EB0C0541EA045170BD41F480114FF0000E013C00F3AB8014F1360FDEBF002001F0004170BDF0
S32D0000C870C4F10004203C35DA0C341BDC04F11404C4F1200500FA05F320FA04F001FA05F240EA020001F0004207
S32D0000C89821F0004110EBD37021FA04F642EB06015EEA430E08BF20EAD37070BDC4F10C04C4F1200500FA04F32F
S32D0000C8C020FA05F001FA04F240EA020001F0004110EBD37041F100015EEA430E08BF20EAD37070BDC4F12005C7
S32D0000C8E800FA05F24EEA020E20FA04F301FA05F243EA020321FA04F001F0004121FA04F220EA020000EBD37028
S32D0000C9105EEA430E08BF20EAD37070BD94F0000F0FD101F00046400041EB010111F4801F08BF013CF7D041EA6D
S32D0000C938060195F0000F18BF704703F00046520043EB030313F4801F08BF013DF7D043EA0603704794EA0C0FF1
S32D0000C9600CEA135518BF95EA0C0F0CD050EA410618BF52EA4306D1D181EA030101F000414FF0000070BD50EA38
S32D0000C988410606BF1046194652EA430619D094EA0C0F02D150EA013613D195EA0C0F05D152EA03361CBF10467B
S32D0000C9B019460AD181EA030101F0004141F0FE4141F470014FF0000070BD41F0FE4141F4780170BD70B54FF04D
S32D0000C9D8FF0C4CF4E06C1CEA11541DBF1CEA135594EA0C0F95EA0C0F00F0A7F8A4EB050481EA030E52EA03359B
S32D0000CA004FEA013100F088804FEA03334FF0805545EA131343EA12634FEA022245EA111545EA10654FEA002676
S32D0000CA280EF000419D4208BF964244F1FD0404F5407402D25B084FEA3202B61A65EB03055B084FEA32024FF461
S32D0000CA5080104FF4002CB6EB020E75EB030E22BFB61A754640EA0C005B084FEA3202B6EB020E75EB030E22BF22
S32D0000CA78B61A754640EA5C005B084FEA3202B6EB020E75EB030E22BFB61A754640EA9C005B084FEA3202B6EBEA
S32D0000CAA0020E75EB030E22BFB61A754640EADC0055EA060E18D04FEA051545EA16754FEA06164FEAC30343EAAC
S32D0000CAC852734FEAC2025FEA1C1CC0D111F4801F0BD141EA00014FF000004FF0004CB6E711F4801F04BF0143AE
S32D0000CAF00020B4F1FD0C88BFBCF5E06F3FF6AFAEB5EB030C04BFB6EB020C5FEA500C50F1000041EB045170BDBC
S32D0000CB180EF0004E4EEA113114EB5C04C2BFD4EB0C0541EA045170BD41F480114FF0000E013C90E645EA060EC3
S32D0000CB408DE60CEA135594EA0C0F08BF95EA0C0F3FF43BAF94EA0C0F0AD150EA01347FF434AF95EA0C0F7FF499
S32D0000CB6825AF104619462CE795EA0C0F06D152EA03353FF4FDAE1046194622E750EA410618BF52EA43067FF432
S32D0000CB90C5AE50EA41047FF40DAF52EA43057FF4EBAE12E74FF0FF3C06E000BF4FF0010C02E000BF4FF0010C75
S32D0000CBB84DF804CD4FEA410C7FEA6C5C4FEA430C18BF7FEA6C5C1BD001B050EA410C0CBF52EA430C91EA030FEC
S32D0000CBE002BF90EA020F0020704710F1000F91EA030F58BF994208BF90422CBFD8176FEAE37040F0010070476E
S32D0000CC084FEA410C7FEA6C5C02D150EA013C07D14FEA430C7FEA6C5CD6D152EA033CD3D05DF8040B704700BFCD
S32D0000CC308446104662468C461946634600E000BF01B5FFF7B7FF002848BF10F1000F01BD4DF808EDFFF7F4FF13
S32D0000CC580CBF012000205DF808FB00BF4DF808EDFFF7EAFF34BF012000205DF808FB00BF4DF808EDFFF7E0FF18
S32D0000CC8094BF012000205DF808FB00BF4DF808EDFFF7CEFF94BF012000205DF808FB00BF4DF808EDFFF7C4FF40
S32D0000CCA834BF012000205DF808FB00BF4FEA410212F5001215D211D56FF47873B3EB625212D94FEAC12343F0D6
S32D0000CCD0004343EA505311F0004F23FA02F018BF404270474FF00000704750EA013005D111F0004008BF6FF016
S32D0000CCF8004070474FF00000704700BF4A0011D212F5001211D20DD56FF47873B3EB62520ED44FEAC12343F085
S32D0000CD20004343EA505323FA02F070474FF00000704750EA013002D14FF0FF3070474FF0000070474FEA410241
S32D0000CD48B2F1E04324BFB3F5001CDCF1FE5C0DD901F0004C4FEAC0024CEA5070B2F1004F40EB830008BF20F09E
S32D0000CD700100704711F0804F21D113F13872BCBF01F00040704741F480114FEA5252C2F11802C2F1200C10FAB1
S32D0000CD980CF320FA02F018BF40F001004FEAC1234FEAD32303FA0CFC40EA0C0023FA02F34FEA4303CCE77FEA26
S32D0000CDC0625307D150EA01331EBF4FF0FE4040F44000704701F0004040F0FE4040F40000704700BF80F00040CC
S32D0000CDE802E000BF81F0004142001FBF5FEA410392EA030F7FEA226C7FEA236C6AD04FEA1262D2EB1363C1BF06
S32D0000CE10D218414048404140B8BF5B42192B88BF704710F0004F40F4000020F07F4018BF404211F0004F41F4FA
S32D0000CE38000121F07F4118BF494292EA030F3FD0A2F1010241FA03FC10EB0C00C3F1200301FA03F100F000432B
S32D0000CE6002D5494260EB4000B0F5000F13D3B0F1807F06D340084FEA310102F10102FE2A51D2B1F1004F40EB94
S32D0000CE88C25008BF20F0010040EA03007047490040EB000010F4000FA2F10102EDD1B0FA80FCACF1080CB2EB5F
S32D0000CEB00C0200FA0CF0AABF00EBC25052421843BCBFD0401843704792F0000F81F4000106BF80F400000132EB
S32D0000CED8013BB5E74FEA41037FEA226C18BF7FEA236C21D092EA030F04D092F0000F08BF0846704790EA010FD7
S32D0000CF001CBF0020704712F07F4F04D1400028BF40F00040704712F100723CBF00F50000704700F0004343F0DC
S32D0000CF28FE4040F4000070477FEA226216BF08467FEA23630146420206BF5FEA412390EA010F40F480007047C1
S32D0000CF504FF0000304E000BF10F0004348BF40425FEA000C08BF704743F0964301464FF000001CE050EA010264
S32D0000CF7808BF70474FF000030AE000BF50EA010208BF704711F0004302D5404261EB41015FEA010C02BF84465B
S32D0000CFA00146002043F0B64308BFA3F18053A3F50003BCFA8CF2083AA3EBC25310DB01FA02FC634400FA02FC6B
S32D0000CFC8C2F12002BCF1004F20FA02F243EB020008BF20F00100704702F1200201FA02FCC2F1200250EA4C0034
S32D0000CFF021FA02F243EB020008BF20EADC7070474FF0FF0C1CEAD0521EBF1CEAD15392EA0C0F93EA0C0F6FD019
S32D0000D0181A4480EA010C400218BF5FEA41211ED04FF0006343EA501043EA5111A0FB01310CF00040B1F5000FE7
S32D0000D0403EBF490041EAD3715B0040EA010062F17F02FD2A1DD8B3F1004F40EBC25008BF20F00100704790F058
S32D0000D068000F0CF0004C08BF49024CEA502040EA51207F3AC2BFD2F1FF0340EAC250704740F400004FF0000388
S32D0000D090013A5DDC12F1190FDCBF00F000407047C2F10002410021FA02F1C2F1200200FA02FC5FEA310040F1D5
S32D0000D0B8000053EA4C0308BF20EADC70704792F0000F00F0004C02BF400010F4000F013AF9D040EA0C0093F04C
S32D0000D0E0000F01F0004C02BF490011F4000F013BF9D041EA0C018FE70CEAD15392EA0C0F18BF93EA0C0F0AD00B
S32D0000D10830F0004C18BF31F0004CD8D180EA010000F00040704790F0000F17BF90F0004F084691F0000F91F0BB
S32D0000D130004F14D092EA0C0F01D142020FD193EA0C0F03D14B0218BF084608D180EA010000F0004040F0FE4051
S32D0000D15840F40000704740F0FE4040F4400070474FF0FF0C1CEAD0521EBF1CEAD15392EA0C0F93EA0C0F69D044
S32D0000D180A2EB030280EA010C49024FEA402037D04FF0805343EA111143EA10130CF000408B4238BF5B0042F14E
S32D0000D1A87D024FF4000C8B4224BF5B1A40EA0C00B3EB510F24BFA3EB510340EA5C00B3EB910F24BFA3EB9103A4
S32D0000D1D040EA9C00B3EBD10F24BFA3EBD10340EADC001B0118BF5FEA1C1CE0D1FD2A3FF650AF8B4240EBC25018
S32D0000D1F808BF20F0010070470CF0004C4CEA50207F32C2BFD2F1FF0340EAC250704740F400004FF00003013AF1
S32D0000D22037E792F0000F00F0004C02BF400010F4000F013AF9D040EA0C0093F0000F01F0004C02BF490011F4C9
S32D0000D248000F013BF9D041EA0C0195E70CEAD15392EA0C0F08D142027FF47DAF93EA0C0F7FF470AF084676E7AE
S32D0000D27093EA0C0F04D14B023FF44CAF08466EE730F0004C18BF31F0004CCAD130F000427FF45CAF31F0004376
S32D0000D2987FF43CAF5FE700BF4FF0FF3C06E000BF4FF0010C02E000BF4FF0010C4DF804CD4FEA40024FEA41039F
S32D0000D2C07FEA226C18BF7FEA236C11D001B052EA530C18BF90EA010F58BFB2EB030088BFC81738BF6FEAE1706E
S32D0000D2E818BF40F0010070477FEA226C02D15FEA402C05D17FEA236CE4D15FEA412CE1D05DF8040B704700BF16
S32D0000D310844608466146FFE70FB5FFF7C9FF002848BF10F1000F0FBD4DF808EDFFF7F4FF0CBF012000205DF839
S32D0000D33808FB00BF4DF808EDFFF7EAFF34BF012000205DF808FB00BF4DF808EDFFF7E0FF94BF012000205DF8A9
S32D0000D36008FB00BF4DF808EDFFF7D2FF94BF012000205DF808FB00BF4DF808EDFFF7C8FF34BF012000205DF8B1
S32D0000D38808FB00BF4FEA4002B2F1FE4F0FD34FF09E03B3EB12620DD94FEA002343F0004310F0004F23FA02F060
S32D0000D3B018BF404270474FF00000704712F1610F01D1420205D110F0004008BF6FF0004070474FF00000704797
S32D0000D3D8036803B11B181846704700BF03685A004CBF43F0004323F00043C018704700BF2DE9F84F0446914699
S32D0000D40041B301F1FF3BDA46002707EB0A0101EBD1756D1004EBC5063046FFF7E3FF8046681CAB4504EBC000FA
S32D0000D4280DD0FFF7DBFF0138C84504D9BD4209D005F1FF3AE5E7484505D26F1CE1E74FF0FF30F1E7002630469A
S32D0000D450BDE8F88F0E463046BDE8F88F30B52B4B83B004468D1E002B49D0284601A9AFF300800346002822D028
S32D0000D4782A4618460199FFF7BBFF054600281DD0FFF7ACFF6B68A064012B10D0281D002B22DBFFF7A3FF002164
S32D0000D4A0E06421650368002B0FDBFFF79BFF2061002003B030BD002323610520F9E720610920F6E72061092066
S32D0000D4C8F3E7C3F3036058B101280CD002280ED0002020610920E8E70122E0642265DDE7094B2361E1E7094AEF
S32D0000D4F000202261DDE7084900202161D9E7074B0749C81AC2100192B6E700BF0000000029DA000025DA0000AD
S32D0000D51821DA000040F3010040F50100036810B50446D80706D4990704F1480009D500F00DFD23685A0709D5CE
S32D0000D54018070ED5D90613D510BD00F0FBFC23685A07F5D404F1D00000F004FD23681807F0D404F5D87000F036
S32D0000D56805FD2368D906EBD404F50C70BDE8104000F040BD2DE9F0470F1D054691460FCFADF5916D02AC261D09
S32D0000D5900FC60FCF0FC60FCF0FC697E80F00D5F80C80D5F818A0002786E80F00216C27602846FFF753FF06460C
S32D0000D5B8B94514BF4FF00A094FF00909FEB1A16B49F01009616401208DE8100449462A462B46C04700282BD1BA
S32D0000D5E0002E2AD1204692A94FF410720DF09FFD082F28D1216C2846FFF730FF06464FF00909002EDFD1206C9E
S32D0000D60821464FF41072686192A80DF08CFD2F69294692AA4846B847A09B0746636401208DE8100449462A4677
S32D0000D6302B46C0470028D3D00926304622B00DF5806DBDE8F087072FF6D1201D00F06EFC38B504460D46296C54
S32D0000D6582046FFF7FFFE50B92A6C23696261012021462A4698470828F1D0072801D010F0CBFE281D00F056FC45
S32D0000D68011B933B10220704704298CBF0220012070470F2A01D90220704700EB820118464A68009B1A6070474D
S32D0000D6A810B50A4684B000210B4603AC0094FFF7E3FF039804B010BD11B933B10220704704298CBF0220012020
S32D0000D6D070470F2A01D902207047009900EB8202096818465160704710B584B004AB0C4643F8042D0021009330
S32D0000D6F822460B46FFF7E0FF04B010BD2DE9F04FCD6C8BB00C4655F8041B174600F008021E46039200F0030823
S32D0000D7200795002B40F0CF8009020691216D8DF821300323B8F1020F8DF8203008BFA56B11F0010340F0D3807B
S32D0000D748019304F158030293D5F80090B9F1000F00F0CB80022E00F0AE80B5F80090B5F802A00435A26C0F2198
S32D0000D7702AF0010B38469344FFF796FF834518D829F0010CE3440AF0010A09F00103584543EA4A092CBF002056
S32D0000D7980120B9F1010F12D032D2B8F1000F02D0002840F01D810435CEE70AF0010A09F0010343EA4A09002092
S32D0000D7C0B9F1010FECD1B8F1000F40F0B680C8B16B68D5F800909A1C19D0029A013309920DD0281DFFF7F8FDE6
S32D0000D7E84FEAD972014609AB20460FF077FE002800F0F280099A002A40F0BA800835A3E7B9F1020F03D009207B
S32D0000D8100BB0BDE8F08F2B6823F000420092B8F1000F71D1002843D00398002840F0A1800098002800F0A08078
S32D0000D838009BDDF80C90DB0705F1040A40F1B480CDF810800596A846029E12E000998D4200F0D9800996FFF7B5
S32D0000D860BBFD5A46014609AB20460FF03BFEA946B0B90AF1040A05F1010950460996FFF7ABFD09AB0146002258
S32D0000D88820460FF02BFE0AF1040A834609F101055046BBF1000FD9D04546059EDDF81080009A4A4564D02B6895
S32D0000D8B0002B7BDB0099481C05EB800548E7D5F804A0083552E70B04C1F30740216D06930222B8F1020F05EB42
S32D0000D8D8800508BFA56B8DF8210011F001038DF820203FF42DAF00200190384606A900F019FC002887D1019A49
S32D0000D900002A43D1082083E70D213846D4F82090FFF7CAFE8145CAD1A26A9542C7D10098291D00220423A0623E
S32D0000D928E26223636163286800286EDB01220192BCE70D213846D4F82090FFF7B1FE81457FF45CAFA16A8D42FE
S32D0000D9507FF458AF2846FFF745FD0F2102463846FFF7C2FE384600212246FFF7BDFE07204EE7009900299BD19B
S32D0000D97838460D21FFF794FE099B20626362A562062041E70F213846FFF78AFE0E2102463846FFF7A5FE3846D5
S32D0000D9A00F211E4AFFF7A0FE072031E7043581E7029950460991FFF70FFD039A014609AB20460FF08FFD0028CF
S32D0000D9C87FF46EAFCDF8108005960AF1040A4FF00109A846029E4CE7CDF824800835B3E62846FFF7FBFC0435CB
S32D0000D9F00646A56320460FF0EBFD00283FF407AF38460F213246FFF76FFE072000E74546B2E7009B591C05EB9C
S32D0000DA1881009CE739D7010002236FE601236DE600236BE62DE9F0470446E8B004290CD8DFE801F0380391930F
S32D0000DA400F00150C012B96B200F07881052B00F0C780022068B0BDE8F087002BF9D1102AF7D82368D90600F115
S32D0000DA68738164A8019200F0CFFA019AA36BD00744BF53F8040B6490910744BF53F8041B6591500744BF53F8D3
S32D0000DA90041B6691110748BF53F8042B64A8A36348BF679200F0AAFA0020D3E7002BD0D1A36BD00791B244BF42
S32D0000DAB853F8042B62608A0744BF53F8042BA260480744BF53F8042BE2600A0744BF53F8042B2261C80644BF04
S32D0000DAE053F8042B62618A0644BF53F8042BA261480644BF53F8042BE2610A0644BF53F8042B2262C80544BFDC
S32D0000DB0853F8042B62628A0544BF53F8042BA262480544BF53F8042BE2620A0544BF53F8042B2263C80444BFB3
S32D0000DB3053F8042B626311F400501CBF53F8042BA2634A0444BF53F8042BE2630A0444BF53F8042B2264002890
S32D0000DB5840D1A3637AE7012078E7032B7FF475AF160C95B2AA19102A3FF66FAF2368180700F10B8144A800F026
S32D0000DB801BFAA76B4FEA450E3B460DB344A90EF1FF3C01EBC60653F8040B62460CF0010146F8040B92B129B13A
S32D0000DBA853F8041B013A46F8041B0BD01846314650F8045B41F8045B5D68031D75600E1D023AF3D107EB8E03F6
S32D0000DBD044A8A36300F0CEF900203BE7002039E777192022BA42FFF434AF012B00F0A9800F2D40F2A9803746FF
S32D0000DBF8F6B1052B7FF429AF0F2D11D82268D0070ED522F00101052B2160204600F0DA8022F0030240F8482B3D
S32D0000DC20019300F093F9019B1FB12268510700F1B880012B00F0BF800F2D75D9002F40F0A080D4F83890002E29
S32D0000DC48C8462EDD49460DF1080A4FEA46080AEBC50251F8046B08F1FF3000F0010A42F8046BA8F1020CD0B107
S32D0000DC70BAF1000F08D051F8040B0CF1FF3CBCF1FF3F42F8040B0ED00E46104656F804AB40F804AB4968ACF176
S32D0000DC98020C5160311D021DBCF1FF3FF0D109EB8808A7B3102D2CBF2E4610260DF5D079414609EBC60CACF59D
S32D0000DCC0C8724FEA470951F8046B09F1FF3000F0010A42F8046BA9F1020CD0B1BAF1000F08D051F8040B0CF1DE
S32D0000DCE8FF3CBCF1FF3F42F8040B0ED00E46104656F804AB40F804AB4968ACF1020C5160311D021DBCF1FF3FCE
S32D0000DD10F0D108EB8908012B2BD00F2DC4F8388008D9FFB9384695E602A8019300F016F9019B83E702A800F05A
S32D0000DD380DF9F2E77719102250E70F2D3FF685AE102F10D9103F54E723F01003236004F50C70019200F058F99D
S32D0000DD60019A82E624A800F0FDF8002072E6002746E708F1040302A8A36300F0E3F8002068E624A80193C5F116
S32D0000DD88100600F0EFF8019B57E723F0080704F5D870276000F00CF9ECE6204622F0040140F8D01B019300F0D1
S32D0000DDB0DDF8019B3DE702A8019300F0C7F8019B002F3FF43EAFC5F110063AE741F0020140F8481B019300F098
S32D0000DDD8C1F8019B24E700BF406C7047F0B50D460F1DC96B296404460FCFADF5117D01AE0FC60FCF0FC60FCF49
S32D0000DE000FC697E80F0086E80F004FF0FF33009310992046FFF722FB58B9266921466A46B04708280646F3D001
S32D0000DE286846FFF77BFB062E03D009200DF5117DF0BD20462946FFF707FC00BF10B4DC6BC16082611946002228
S32D0000DE501C6410BCFFF792BB38B54269C3680A6404460D4623B10122FFF788FB10F0D0FA0369214602202A46A8
S32D0000DE789847072803D0082804D010F0C5FA281D00F050F820462946FFF7DEFBC36823B1CA6B0A640022FFF7FD
S32D0000DEA06DBB9FE7704700BF08B5836801460BB10120984708BD00BFF0B5D46B171D146405460C460FCFADF554
S32D0000DEC8277D01AE0FC60FCF0FC60FCF0FC697E80F0086E80F004FF0FF330093109990A8FFF7B8FA034690AA83
S32D0000DEF068460C21BBB9FFF7F7FB21466846A847064690A908206A466EB9949B98470528064601D00928E5D106
S32D0000DF186846FFF703FB30460DF5277DF0BD0926F6E700BF00F1340191E838009C46A6464CF8045D90E8FF0FD5
S32D0000DF40E54600BD90EC210B704700BF80EC210B704700BF90EC200B704700BF80EC200B704700BFD0EC200B8E
S32D0000DF68704700BFC0EC200B704700BFF0EC0201F0EC0211F0EC0221F0EC0231F0EC0241F0EC0251F0EC02615F
S32D0000DF90F0EC0271F0EC0281F0EC0291F0EC02A1F0EC02B1F0EC02C1F0EC02D1F0EC02E1F0EC02F1704700BFE6
S32D0000DFB8E0EC0201E0EC0211E0EC0221E0EC0231E0EC0241E0EC0251E0EC0261E0EC0271E0EC0281E0EC029155
S32D0000DFE0E0EC02A1E0EC02B1E0EC02C1E0EC02D1E0EC02E1E0EC02F1704700BFB0FC0181B0FC0191B0FC01A159
S32D0000E008B0FC01B1704700BFA0FC0181A0FC0191A0FC01A1A0FC01B1704700BFEC4600B52DE900502DE9FF1F47
S32D0000E0304FF000032DE90C0001A9FFF7D3FEDDF840E012B0704700BFEC4600B52DE900502DE9FF1F4FF00003FD
S32D0000E0582DE90C0001A9FFF7FBFEDDF840E012B0704700BFEC4600B52DE900502DE9FF1F4FF000032DE90C00CD
S32D0000E08001A9FFF707FFDDF840E012B0704700BFEC4600B52DE900502DE9FF1F4FF000032DE90C0001ABFFF718
S32D0000E0A8CDFEDDF840E012B0704700BFEC4600B52DE900502DE9FF1F4FF000032DE90C0001AAFFF7F5FEDDF804
S32D0000E0D040E012B0704700BF027A03461AB9427A42B9B02070470068013A01021A72000E196070474168501E6D
S32D0000E0F8587251F8040B0322596001021A72000E1960704710B5002184B00C220DEB02040B460094FFF7B0FA62
S32D0000E120039804B010BD00BFF0E700BF2DE9F043064685B00D464FF000094FF47F672846FFF7CAFFB028044683
S32D0000E14800F0B08010F0800120D000F0F003802B74D0902B37D0A02B45D0B02B56D0C02B00F0858000F0F800DB
S32D0000E170D0280BD104F00702511C41F40022304601210523FFF752FC0028D8D0092005B0BDE8F0834FEA800267
S32D0000E19803A85FFA82F800900D220B463046FFF76BFA039B600608F104084CBFC8EB0303434403AC03930094CD
S32D0000E1C0002130460D220B46FFF77AFAB7E700F00F020D2ADAD00F2AD8D0002103AC009430460B4603ACFFF77F
S32D0000E1E84BFA0094E8E7C24302F0070C47FA0CF0210700F47F6248BF42F48042002130460B46FFF70FFC00280D
S32D0000E210BCD194E7B1285DD0B2286ED0B32800F0958000F0FC02B42A46D000F00702531C43F40022012130469F
S32D0000E2380B46FFF7F7FB0028A4D17CE72846FFF747FF210240EA0104B4F5004F9AD0230500211A0C30460B46EB
S32D0000E2602401FFF7E3FB002890D114F4004F18BF4FF0010963E7C62873D0C72800F0848000F0F802C02A00F075
S32D0000E2889280C82800F0A680C9287FF47BAF2846FFF71EFF00F00F0300F0F0015A1C42EA013268E7B9F1000F81
S32D0000E2B000F0838000206AE700F00301481C022140F480220B463046FFF7B0FB00287FF45DAF34E72846FFF7FD
S32D0000E2D8FFFE024600283FF455AF10F0F0017FF451AF30460B46FFF79DFB00287FF44AAF21E700210D220B467E
S32D0000E30003AC30460094FFF7BBF92846FFF7E4FE022402060DD5039B00F07F0000FA04FE03EB0E01284603912E
S32D0000E328FFF7D6FE07340306F1D4039B00F07F0103AA03F5017C01FA04F400920CEB0402039239E72846FFF729
S32D0000E350C3FE00F00F03591C00F0F00041EA003268E72846FFF7B8FE00F00F03591C00F0F00041EA00320321E9
S32D0000E37830460B46FFF756FB00287FF403AFDAE62846FFF7A5FE024600283FF4FBAE10F0F0037FF4F7AE304688
S32D0000E3A00421FFF743FB00287FF4F0AEC7E600F00F01481C40F42022DDE703AC49460E224B4630460094FFF773
S32D0000E3C85BF9304649460F224B460094FFF774F94846D8E62846FFF77BFE00F0F00200F00F001032431C43EA3D
S32D0000E3F00232C4E610B5C26C84B0032054688DF80C00D37924020832084601A9019402928DF80D30FFF78AFE7D
S32D0000E41804B010BD08B5FFF783FE806C08BD00BF08B5FFF77DFEC16CC87901EB800303F1080008BD08B50FF029
S32D0000E440E7FF00BF08B50FF0E3FF00BF80B58CB002AF786041F2C040C1F6FF704EF2B851C0F201014EF2C45206
S32D0000E468C0F201020BF008FE03467B6141F2C040C1F6FF7079690BF0CBFF0346002B0CBF00230123DBB2002B6D
S32D0000E49031D041F23840C1F6FF704EF2C851C0F2010109F0B9F841F2C040C1F6FF7079694EF2E452C0F201026F
S32D0000E4B80BF0C4FF4FF000033B6210E041F2C040C1F6FF7079694EF2EC52C0F201024FF000030BF0B3FF3B6AA7
S32D0000E4E003F101033B623B6A042BCCBF00230123DBB2002BE6D17B6841F2C040C1F6FF7079694EF2F852C0F20A
S32D0000E50801020BF0C9FF4FF00003FB612DE007F10C0307F10802009241F2C040C1F6FF7079694EF2FC52C0F25E
S32D0000E53001020BF0B5FFFA6913464FEA43039B184FEA43037A68D31803F1060207F10C03104619460CF014FE0B
S32D0000E558BA687968FB6903F108034FEA8303CB185A60FB6903F10103FB61FB69042BCCBF00230123DBB2002BFE
S32D0000E580C9D17B685B6A7B624FF00103BB6117E07A68BB6903F108034FEA8303D3185A687B6A9A4208DA7A6802
S32D0000E5A8BB6903F108034FEA8303D3185B687B62BB6903F10103BB61BB69042BCCBF00230123DBB2002BDFD113
S32D0000E5D07B687A6A9A6341F2C040C1F6FF7079690BF050FE7B68184607F12807BD4680BD80B483B000AF78603F
S32D0000E5F87B689B6B184607F10C07BD4680BC704780B588B002AF786041F23840C1F6FF7008F088FD41F23840BE
S32D0000E620C1F6FF704FF40C41C0F2FF0108F0C6FD41F23840C1F6FF704EF20461C0F201014FF064024FF0280370
S32D0000E64808F0CCFD41F23840C1F6FF704FF0000108F09CFD4FF04603009341F23840C1F6FF704FF005014FF0D1
S32D0000E67046024FF49D7309F0CDFC4FF000037B6136E07A6913464FEA43039B184FEA43037A68D31803F1060235
S32D0000E6987B694FF0160101FB03F303F15A0341F23840C1F6FF7011464FF0620208F096FD7A687B6903F10803BC
S32D0000E6C04FEA8303D3185A687B694FF0160101FB03F303F15A0341F23840C1F6FF7011464FF0C60208F0AAFD75
S32D0000E6E87B6903F101037B617B69042BCCBF00230123DBB2002BC0D141F23840C1F6FF704EF21061C0F20101E8
S32D0000E7104FF05E024FF0D70308F064FD00BF07F1100207F10C0341F23840C1F6FF7011461A4608F0F5FD03463F
S32D0000E73883F00103DBB2002BEDD100BF07F1100207F10C0341F23840C1F6FF7011461A4608F0E2FD0346002B23
S32D0000E760F0D107F11807BD4680BD00BF80B582B000AF786041F23840C1F6FF7046F26661C0F2660108F01AFDCE
S32D0000E7887B6841F23840C1F6FF7019464FF082024FF0D50308F022FD07F10807BD4680BD90B59BB002AF7860FF
S32D0000E7B0396041F23840C1F6FF704EF21C61C0F201014FF06A024FF00A0308F00BFD41F23840C1F6FF704EF258
S32D0000E7D82861C0F201014FF022024FF0200308F0FDFC41F23840C1F6FF704EF24061C0F201014FF067024FF0D3
S32D0000E800360308F0EFFC41F23840C1F6FF7039684FF0C0024FF0360308F010FD7868FFF7A5FF4FF00003FB65C2
S32D0000E8282CE007F12401FA6D13464FEA43039B184FEA4303C918FA6D13464FEA43039B184FEA43037A68D31809
S32D0000E85003F10603084619460CF092FC7A68FB6D03F108034FEA8303D3185A68FB6D4FEA830307F16001CB184E
S32D0000E87843F8502CFB6D03F10103FB657A68FB6D03F108034FEA8303D3185A683B689A42B4BF00230123DBB280
S32D0000E8A0002BC2D107F12401FA6D13464FEA43039B184FEA4303CA187B68104619460CF05FFCFB6D4FEA830306
S32D0000E8C807F16002D3183A6843F8502CFB6D002B03D14FF00003BB6502E04FF00103BB65FB6D03F10103FB65B6
S32D0000E8F030E007F12401FA6D13464FEA43039B184FEA4303C918FA6DBB6DD21A13464FEA43039B184FEA4303F6
S32D0000E9187A68D31803F10603084619460CF02CFCFA6DBB6DD31A7A6803F108034FEA8303D3185A68FB6D4FEACC
S32D0000E940830307F16001CB1843F8502CFB6D03F10103FB65FB6D042BCCBF00230123DBB2002BC6D14FF0000376
S32D0000E9687B652CE07A6D13464FEA43039B184FEA43037A68D31803F1060107F124007A6D13464FEA43039B184E
S32D0000E9904FEA4303C318084619460CF0F1FB7B6D4FEA830307F16002D31853F8502C79687B6D03F108034FEAB6
S32D0000E9B88303CB185A607B6D03F101037B657B6D042BCCBF00230123DBB2002BCAD141F2C040C1F6FF704EF279
S32D0000E9E0B851C0F201014EF24862C0F201020BF047FB03467B647B6841F2C040C1F6FF70796C4EF24C62C0F287
S32D0000EA0801020BF01BFD4FF000033B6523E03A6D13464FEA43039B184FEA43037A68D31803F106047A683B6DDF
S32D0000EA3003F108034FEA8303D3185B68009341F2C040C1F6FF70796C4EF25062C0F2010223460BF0F7FC3B6DD5
S32D0000EA5803F101033B653B6D042BCCBF00230123DBB2002BD3D17B685B6AFB644FF00103BB6417E07A68BB6C8A
S32D0000EA8003F108034FEA8303D3185A68FB6C9A4208DA7A68BB6C03F108034FEA8303D3185B68FB64BB6C03F1E9
S32D0000EAA80103BB64BB6C042BCCBF00230123DBB2002BDFD17B68FA6C9A6341F2C040C1F6FF70796C0BF0DAFB39
S32D0000EAD041F23840C1F6FF704EF25861C0F201014FF046024FF0960308F07CFB00BF07F10C0207F1080341F2D1
S32D0000EAF83840C1F6FF7011461A4608F00DFC034683F00103DBB2002BEDD100BF07F10C0207F1080341F23840F1
S32D0000EB20C1F6FF7011461A4608F0FAFB0346002BF0D141F23840C1F6FF704FF0010108F0CBFA07F16407BD4693
S32D0000EB4890BD00BF80B483B000AF78607B68184607F10C07BD4680BC704700BF80B483B000AF78607B685B6810
S32D0000EB70184607F10C07BD4680BC704780B483B000AF78607B689B68184607F10C07BD4680BC704780B483B07E
S32D0000EB9800AF78607B681B68184607F10C07BD4680BC704780B483B000AF78607B681B7B184607F10C07BD4630
S32D0000EBC080BC704780B483B000AF786039607B683A685A6007F10C07BD4680BC704700BF80B483B000AF7860C0
S32D0000EBE839607B683A689A6007F10C07BD4680BC704700BF80B483B000AF786039607B683A681A6007F10C0796
S32D0000EC10BD4680BC704700BF80B483B000AF78600B46FB707B68FA781A7307F10C07BD4680BC7047F0B593B0AC
S32D0000EC3800AFF860B9607A603B60FB6803F11403184600F043FB4EF26863C0F2010307F110041D460FCD0FC440
S32D0000EC600FCD0FC495E8030084E8030007F09CF802460B4610461946FEF744F8034618460CF016FAFB68BA68A6
S32D0000EC885A60FB687A689A60FB683A6E1A61FB684FF00002DA60FB689B684FEA830318460EF03CFB0246FB689E
S32D0000ECB01A604FF000037B6428E0FB685B681C464FEA041318460EF02DFB064633461D4604F1FF331C4606E0A0
S32D0000ECD82846FFF737FF05F1100504F1FF34B4F1FF3F0CBF00230123DBB2002BF0D1FB681A687B6C4FEA830348
S32D0000ED00D3181E607B6C03F101037B64FB689A687B6C9A42D4BF00230123DBB2002BCCD14FF000033B6465E041
S32D0000ED284FF00003FB6353E00CF0AEF903463A6893FBF2F2396801FB02F29B1ABB63FB681A683B6C4FEA83033B
S32D0000ED50D3181A68FB6B4FEA0313D218BB6B4FEA830307F14801CB1853F8383C10461946FFF744FFFB681A68EE
S32D0000ED783B6C4FEA8303D3181A68FB6B4FEA0313D3181846396CFFF719FFFB681A683B6C4FEA8303D3181A6831
S32D0000EDA0FB6B4FEA0313D3181846F96BFFF718FFFB681A683B6C4FEA8303D3181A68FB6B4FEA0313D318184620
S32D0000EDC84FF00001FFF724FFFB6B03F10103FB63FB685A68FB6B9A42D4BF00230123DBB2002BA1D13B6C03F102
S32D0000EDF001033B64FB689A683B6C9A42D4BF00230123DBB2002B8FD1FB68184607F14C07BD46F0BD80B485B053
S32D0000EE1800AFF860B9607A60FB681A68BB684FEA8303D3181A687B684FEA0313D318184607F11407BD4680BCD1
S32D0000EE40704700BF80B483B000AF78607B68DB68184607F10C07BD4680BC704780B483B000AF786039607B6851
S32D0000EE683A68DA6007F10C07BD4680BC704700BF80B588B000AF78604FF00103FB757B6803F11403184600F0FD
S32D0000EE903DFA03463B610CE07B6803F11403184600F052FA0346FB60F8684FF00001FFF7B3FE7B6803F11403EB
S32D0000EEB8184600F033FA034683F00103DBB2002BE6D178684FF000014FF00002FFF79EFF03461846FFF75AFE99
S32D0000EEE00346BB604FF00003FB612AE04FF00003BB6118E07868F969BA69FFF78BFF03461846FFF747FE024693
S32D0000EF08BB689A420CBF00230123DBB2002B02D04FF000031DE0BB6903F10103BB617B685A68BB699A42D4BF91
S32D0000EF3000230123DBB2002BDCD1FB6903F10103FB617B689A68FB699A42D4BF00230123DBB2002BCAD14FF0BE
S32D0000EF580103184607F12007BD4680BD90B585B000AFF860B9607A603B60B868FFF71AFE0346002B40F0BD80AC
S32D0000EF80FB6803F114031846B96800F0F9F9B8684FF00101FFF740FEB868FFF7FBFD02467B689A420CBF0023FC
S32D0000EFA80123DBB2002B40F0A680B8683968FFF721FEF86800F0A6F8B868FFF7CFFD034603F1FF336FEA030395
S32D0000EFD04FEAD373DBB2002B18D0FB681C68B868FFF7C0FD034603F1FF334FEA8303E3181C68B868FFF7C2FDB8
S32D0000EFF803464FEA0313E318F86819467A683B68FFF7ACFFB868FFF7A9FD034603F10102FB685B689A42ACBF0A
S32D0000F02000230123DBB2002B18D0FB681C68B868FFF798FD034603F101034FEA8303E3181C68B868FFF79AFD1D
S32D0000F04803464FEA0313E318F86819467A683B68FFF784FFB868FFF78DFD034603F1FF336FEA03034FEAD3735D
S32D0000F070DBB2002B18D0FB681C68B868FFF772FD03464FEA8303E3181C68B868FFF776FD034603F1FF334FEAAE
S32D0000F0980313E318F86819467A683B68FFF75EFFB868FFF767FD034603F10102FB685B689A42ACBF0023012334
S32D0000F0C0DBB2002B1DD0FB681C68B868FFF74AFD03464FEA8303E3181C68B868FFF74EFD034603F101034FEAD7
S32D0000F0E80313E318F86819467A683B68FFF736FF03E000BF02E000BF00E000BF07F11407BD4690BD90B587B0B9
S32D0000F11002AF786041F23840C1F6FF704FF0000108F04CF87B689B684FF0B40292FBF3F37A68526802FB03F31E
S32D0000F1384FEAD372D3184FEA6303C3F1A0027B689B684FF0B40191FBF3F37968496801FB03F303F101034FF044
S32D0000F160B501009141F23840C1F6FF7011464FF0190208F05BFE4FF00003FB605FE04FF00003BB604DE0786821
S32D0000F188F968BA68FFF742FE03461846FFF7FEFC034641F23840C1F6FF70194608F00AF87B689B684FF0B402BB
S32D0000F1B092FBF3F37A68526802FB03F34FEAD372D3184FEA6303C3F1A102BB684FF0B40101FB03F17B689B68E3
S32D0000F1D891FBF3F3D118FB684FF0B40202FB03F27B689B6892FBF3F303F11A027B689B684FF0B40090FBF3F3B1
S32D0000F200786880684FF0B40494FBF0F0009041F23840C1F6FF7008F0CFFEBB6803F10103BB607B685A68BB688E
S32D0000F2289A42D4BF00230123DBB2002BA7D1FB6803F10103FB607B689A68FB689A42D4BF00230123DBB2002B66
S32D0000F25095D17B68DB6803F10903122B0DD87B68DB6841F23840C1F6FF7019464FF08E024FF0D00307F0E2FFD3
S32D0000F2780CE07B68DB6841F23840C1F6FF7019464FF082024FF0D00307F0D4FF41F23840C1F6FF704EF2906185
S32D0000F2A0C0F201014FF09A024FF0D00307F09AFF7B681B6941F23840C1F6FF7019464FF0A6024FF0D00307F088
S32D0000F2C8B9FF07F11407BD4690BD00BF80B582B000AF78607B684FF000021A607B684FF002025A607B685B682C
S32D0000F2F04FEA830318460EF015F802467B689A607B68184607F10807BD4680BD80B483B000AF78607B681B68C7
S32D0000F318184607F10C07BD4680BC704780B483B000AF78607B681B68002B14BF00230123DBB2184607F10C07D9
S32D0000F340BD4680BC704700BF80B584B000AF78607B681B6803F1FF327B681A607B689A687B681B684FEA830308
S32D0000F368D3181B68FB60786800F022F8FB68184607F11007BD4680BD80B582B000AF786039607B689A687B6865
S32D0000F3901B684FEA8303D3183A681A607B681B6803F101027B681A60786800F005F807F10807BD4680BD00BF79
S32D0000F3B880B586B000AF78607B681A687B685B689A4236D17B681B684FEA43027B685A607B685B684FEA830361
S32D0000F3E018460DF09FFF0346FB604FF000037B6110E07B694FEA8303FA68D3187A6891687A694FEA82028A1847
S32D0000F40812681A607B6903F101037B617A697B681B689A422CBF00230123DBB2002BE4D17B689B6818460DF025
S32D0000F4306BFF7B68FA689A6041E07B681A687B685B684FEA93039A4239D27B685B684FEA53027B685A607B686F
S32D0000F4585B684FEA830318460DF060FF0346BB604FF000033B6110E03B694FEA8303BA68D3187A6891683A692A
S32D0000F4804FEA82028A1812681A603B6903F101033B613A697B681B689A422CBF00230123DBB2002BE4D17B686C
S32D0000F4A89B68002B04D07B689B6818460DF040FF7B68BA689A6007F11807BD4680BD00BF80B584B000AFF8602F
S32D0000F4D0B9607A603B60FA68BB68D3187A6802FB03F31846FDF7E6F802460B46104619464FF000024FF080437A
S32D0000F4F803F56413FDF740F902460B46104619464FF000024FF0804303F5CA03FDF75EFA02460B46104619465A
S32D0000F5200BF01EF902460B4610461946FDF7C2FB034603F101023B684FEAD371CB184FEA6303D318184607F189
S32D0000F5481007BD4680BD00BF90B585B000AFF860B9607A603B60BB684FEA0313FA68D3187A681A60BB684FEAF9
S32D0000F5700313FA68D3183A685A60BB684FEA0313FA68D3183A6A9A60BB684FEA0313FA68D418386879683A6A6C
S32D0000F598BB68FFF795FF0346E36007F11407BD4690BD00BF90B595B002AFF860B9607A603B60964B7B63954B2A
S32D0000F5C03B634FF0000387F8473007F110033A6800921846F968BA687B68FFF72BFBF5E007F110031846FFF7F4
S32D0000F5E891FD00BF07F1340207F1300341F23840C1F6FF7011461A4607F08EFE034683F00103DBB2002B1ED0DE
S32D0000F6107B6B1846FDF7BAFE0346462B14DD7B6B1846FDF7B3FE0346FA2B0DDC3B6B1846FDF7ACFE0346192BC2
S32D0000F63806DD3B6B1846FDF7A5FE0346CD2B02DD4FF0010301E04FF00003002BCAD13B6B1846FDF797FE034604
S32D0000F660A3F11A043B6B1846FDF790FE0346A3F11A034FF0B401BA6891FBF2F293FBF2F102FB01F29B1AE21AB2
S32D0000F6884FF0B401BB6891FBF3F392FBF3F33B647B6B1846FDF776FE034603F1FF324FF0B401BB6891FBF3F316
S32D0000F6B0F96801FB03F34FEAD371CB184FEA6303A3F1A003D4187B6B1846FDF75FFE034603F1FF324FF0B401C0
S32D0000F6D8BB6891FBF3F3F96801FB03F34FEAD371CB184FEA6303A3F1A003D3184FF0B401BA6891FBF2F293FBE7
S32D0000F700F2F102FB01F29B1AE21A4FF0B401BB6891FBF3F392FBF3F3FB6307F110031846396CFA6BFFF776FB23
S32D0000F72803461846FFF732FA0346BB6307F1100318464FF000014FF00002FFF767FB03461846FFF723FA02463F
S32D0000F750BB6B9A420CBF00230123DBB2002B35D007F110031846FFF76DFB034603F1010307F1100210461946F3
S32D0000F778FFF770FB07F1100318464FF000014FF00002FFF743FB044607F1100318464FF000014FF00002FFF7BA
S32D0000F7A039FB03461846FFF7F5F9034607F11002104621461A46BB6BFFF7D4FB07F110031846FFF759FB034625
S32D0000F7C887F8473097F8473083F00103DBB2002B7FF402AF4FF000004FF07E5101F5F00106F0B2FA41F2384043
S32D0000F7F0C1F6FF704FF0010107F06EFC07F110031846FFF71FFB0346184607F14C07BD4690BD00BF000080BF6A
S32D0000F81882B080B586B000AFB9607A607B620346FB7341F23840C1F6FF704FF0010107F04FFC41F23840C1F639
S32D0000F840FF704FF0000107F0A5FCFB7B83F00103DBB2002B40D041F23840C1F6FF704EF29461C0F201014FF0A5
S32D0000F86852024FF01E0307F0B9FC41F23840C1F6FF704EF2A461C0F201014FF010024FF0390307F0ABFC41F2AB
S32D0000F8903840C1F6FF7079684FF48C724FF0390307F0CCFC41F23840C1F6FF704EF2BC61C0F201014FF02E02FF
S32D0000F8B84FF0540307F092FC41F23840C1F6FF70B9684FF483724FF0540307F0B3FC6CE0BB680B2B37D141F2C1
S32D0000F8E03840C1F6FF704FF43B0107F067FC41F23840C1F6FF704EF2D061C0F201014FF004024FF01E0307F0F1
S32D0000F9086DFC41F23840C1F6FF704FF0000107F03DFC41F23840C1F6FF704EF2A461C0F201014FF010024FF0CD
S32D0000F930390307F057FC41F23840C1F6FF7079684FF48C724FF0390307F078FC31E041F23840C1F6FF704EF228
S32D0000F958EC61C0F201014FF022024FF01E0307F03DFC41F23840C1F6FF70B9684FF489724FF01E0307F05EFCAC
S32D0000F98041F23840C1F6FF704EF20471C0F201014FF010024FF0390307F024FC41F23840C1F6FF7079684FF447
S32D0000F9A88C724FF0390307F045FC41F23840C1F6FF704EF21C71C0F201014FF046024FF0960307F00BFC07F1D9
S32D0000F9D024031846FEF7CAFE00BF07F1140207F1100341F23840C1F6FF7011461A4607F097FC034683F001031D
S32D0000F9F8DBB2002BEDD100BF07F1140207F1100341F23840C1F6FF7011461A4607F084FC0346002BF0D141F22C
S32D0000FA203840C1F6FF704FF0010107F055FB07F11807BD46BDE8804002B0704784B080B582B000AF07F1100C4C
S32D0000FA488CE80F0041F23840C1F6FF704FF0010107F03EFB41F23840C1F6FF704FF0000107F094FB41F2384089
S32D0000FA70C1F6FF704EF22C71C0F2010107F0CCFD41F23840C1F6FF704EF26C71C0F2010107F0C2FD41F23840EE
S32D0000FA98C1F6FF704EF2D471C0F2010107F0B8FD41F23840C1F6FF704EF2F471C0F2010107F0AEFD41F23840BE
S32D0000FAC0C1F6FF704EF21C71C0F201014FF046024FF0960307F086FB07F11000FEF746FE00BF07F104023B461B
S32D0000FAE841F23840C1F6FF7011461A4607F014FC034683F00103DBB2002BEED100BF07F104023B4641F2384041
S32D0000FB10C1F6FF7011461A4607F002FC0346002BF1D107F10807BD46BDE8804004B0704784B0B0B58EB002AF5D
S32D0000FB3807F1400C8CE80F0041F23840C1F6FF704FF0010107F0C4FA4EF64C03C0F2010307F104041D460FCD89
S32D0000FB600FC40FCD0FC495E8030084E803000BF08FFA024646F26763C6F2666383FB02134FEAA3014FEAE273B9
S32D0000FB88C91A0B464FEA83035B184FEA4303D31AFB62FB6A4FEA830307F13002D31853F82C3C41F23840C1F6D2
S32D0000FBB0FF70194607F002FB41F23840C1F6FF704EF61001C0F201014FF06A024FF03C0307F008FB0BF05CFA17
S32D0000FBD8024646F26763C6F2666383FB02C34FEAA3014FEAE273C91A0B464FEA83035B184FEA4303D31AFB6257
S32D0000FC00FB6A4FEA830307F13001CB1853F82C3C41F23840C1F6FF70194607F0CFFA41F23840C1F6FF704EF6EE
S32D0000FC281401C0F201014FF076024FF03C0307F0D5FA0BF029FA024646F26763C6F2666383FB02C34FEAA301E1
S32D0000FC504FEAE273C91A0B464FEA83035B184FEA4303D31AFB62FB6A4FEA830307F13001CB1853F82C3C41F2B3
S32D0000FC783840C1F6FF70194607F09CFA41F23840C1F6FF704EF61801C0F201014FF082024FF03C0307F0A2FA1E
S32D0000FCA00BF0F6F9024646F26763C6F2666383FB02C34FEAA3014FEAE273C91A0B464FEA83035B184FEA4303EE
S32D0000FCC8D31AFB62FB6A4FEA830307F13001CB1853F82C3C41F23840C1F6FF70194607F069FA41F23840C1F6F5
S32D0000FCF0FF704EF61801C0F201014FF08E024FF03C0307F06FFA0BF0C3F9024646F26763C6F2666383FB02C3F4
S32D0000FD184FEAA3014FEAE273C91A0B464FEA83035B184FEA4303D31AFB62FB6A4FEA830307F13001CB1853F8A8
S32D0000FD402C3C41F23840C1F6FF70194607F036FA41F23840C1F6FF704EF61C01C0F201014FF09A024FF03C0397
S32D0000FD6807F03CFA0BF090F9024646F26763C6F2666383FB02C34FEAA3014FEAE273C91A0B464FEA83035B18DD
S32D0000FD904FEA4303D31AFB62FB6A4FEA830307F13001CB1853F82C3C41F23840C1F6FF70194607F003FA41F242
S32D0000FDB83840C1F6FF704EF62001C0F201014FF0A6024FF03C0307F009FA0BF05DF9024646F26763C6F26663EB
S32D0000FDE083FB02C34FEAA3014FEAE273C91A0B464FEA83035B184FEA4303D31AFB62FB6A4FEA830307F13001CB
S32D0000FE08CB1853F82C3C41F23840C1F6FF70194607F0D0F941F23840C1F6FF704EF62401C0F201014FF0B20265
S32D0000FE304FF03C0307F0D6F90BF02AF9024646F26763C6F2666383FB02C34FEAA3014FEAE273C91A0B464FEA5C
S32D0000FE5883035B184FEA4303D31AFB62FB6A4FEA830307F13001CB1853F82C3C41F23840C1F6FF70194607F0B0
S32D0000FE809DF941F23840C1F6FF704EF62801C0F201014FF0BE024FF03C0307F0A3F90BF0F7F8024646F2676388
S32D0000FEA8C6F2666383FB02C34FEAA3014FEAE273C91A0B464FEA83035B184FEA4303D31AFB62FB6A4FEA8303AA
S32D0000FED007F13001CB1853F82C3C41F23840C1F6FF70194607F06AF941F23840C1F6FF704EF62C01C0F20101C5
S32D0000FEF84FF0CA024FF03C0307F070F941F23840C1F6FF704FF0000107F040F94FF05B03009341F23840C1F620
S32D0000FF20FF704FF005014FF05B024FF49D7308F071F841F23840C1F6FF704FF43B0107F03DF94FF01903009344
S32D0000FF4841F23840C1F6FF704FF05F014FF078024FF0820308F02CF841F23840C1F6FF704EF63001C0F2010188
S32D0000FF704FF07D024FF07C0307F034F941F23840C1F6FF704FF40C41C0F2FF0107F016F94FF01903009341F289
S32D0000FF983840C1F6FF704FF05F014FF0A5024FF0820308F005F841F23840C1F6FF704EF63801C0F201014FF01E
S32D0000FFC064024FF0A90307F00DF907F14000FEF7CDFB41F23840C1F6FF704FF0000107F0D9F841F23840C1F695
S32D0000FFE8FF704EF64401C0F201014FF0F2024FF0C10307F0F3F807F13007BD46BDE8B04004B07047F0B5F7B0A9
S32D000100100EAF4FF000004FF07E5101F5E00105F097FE07F5A2731846FEF710FA4FF0010387F89F3107F1040357
S32D000100384FF00302009218464FF000014FF003024FF00203FFF780FA07F104034FF00302009218464FF00101B9
S32D000100604FF003024FF00303FFF772FA07F104034FF00302009218464FF002014FF004024FF00303FFF764FA33
S32D0001008807F104034FF00402009218464FF003014FF004024FF00403FFF756FA07F104034FF0040200921846CD
S32D000100B04FF004014FF005024FF00403FFF748FA07F104034FF00402009218464FF005014FF006024FF0040313
S32D000100D8FFF73AFA07F104034FF00402009218464FF006014FF007024FF00503FFF72CFA07F104034FF0050265
S32D00010100009218464FF007014FF007024FF00603FFF71EFA07F104034FF00502009218464FF008014FF0080235
S32D000101284FF00603FFF710FA07F104034FF00602009218464FF009014FF009024FF00603FFF702FA07F104035E
S32D000101504FF00702009218464FF00A014FF00A024FF00703FFF7F4F907F104034FF00702009218464FF00B0105
S32D000101784FF00C024FF00803FFF7E6F96C4607F5AA750FCD0FC40FCD0FC495E8070084E8070007F5A2730FCBDF
S32D000101A0FFF7C6FC00E000BF00BF07F5C67207F5C47341F23840C1F6FF7011461A4607F0AFF8034683F00103CD
S32D000101C8DBB2002BEDD100BF07F5C27207F5C07341F23840C1F6FF7011461A4607F09CF80346002BF0D1D7F85D
S32D000101F08C314FF0010214461846D849FDF7B2F80346002B02D14FF000031C46E3B2002B00F0FD80D7F88C31C6
S32D000102184FF0010214461846CF49FDF795F80346002B02D14FF000031C46E3B2002B00F0EA80D7F888314FF058
S32D00010240010214461846C749FDF782F80346002B02D14FF000031C46E3B2002B00F0D780D7F888314FF001029A
S32D0001026814461846BE49FDF779F80346002B02D14FF000031C46E3B2002B00F0C48041F23840C1F6FF704FF054
S32D00010290010106F021FF4FF0010387F89F314FF00003C7F898314FF00003C7F8943177E007F10402D7F894311C
S32D000102B84FEA0313D318186807F10402D7F894314FEA0313D31803F10403196807F10402D7F894314FEA031334
S32D000102E0D31803F108031A6807F10404D7F894314FEA0313E31803F10C031B68FFF756F90346C7F8903107F119
S32D000103080402D7F894314FEA0313D31803F10C031A68D7F890319A421CDB4FF0010387F89F31D7F8983103F1EC
S32D000103300503C7F8983107F10402D7F894314FEA0313D31803F10C031A68D7F89031D31AD7F89821D318C7F80E
S32D00010358983103E04FF0000387F89F31D7F8943103F10103C7F8943197F89F616C4607F5A4750FCD0FC40FCD48
S32D000103800FC40FCD0FC495E8030084E80300D7F844313046D7F89411D7F89821FFF73CFA97F89F31002B06D09B
S32D000103A8D7F894310B2B02DC4FF0010301E04FF00003002B7FF478AF07F5A2731846FEF713F90246D7F8983103
S32D000103D09A42ACBF00230123DBB2002B06D007F5A2731846D7F89811FEF7DEF96C4607F5AA750FCD0FC40FCDD7
S32D000103F80FC495E8070084E8070007F5A2730FCBFFF792FBA4E0D7F88C314FF00102144618465049FCF7A2FF67
S32D000104200346002B02D14FF000031C46E3B2002B4BD0D7F88C314FF00102144618464849FCF786FF0346002BE4
S32D0001044802D14FF000031C46E3B2002B39D0D7F888314FF00102144618464249FCF77EFF0346002B02D14FF042
S32D0001047000031C46E3B2002B27D0D7F888314FF00102144618463A49FCF762FF0346002B02D14FF000031C46FD
S32D00010498E3B2002B15D007F5A2731846FEF7B0F86C4607F5AA750FCD0FC40FCD0FC495E8070084E8070007F566
S32D000104C0A2730FCBFFF734FB46E0D7F88C314FF00102144618462749FCF744FF0346002B02D14FF000031C46BC
S32D000104E8E3B2002B3FF45BAED7F888314FF00102144618461E49FCF731FF0346002B02D14FF000031C46E3B25D
S32D00010510002B3FF448AE6C4607F5AA750FCD0FC40FCD0FC495E8070084E8070007F5A2730FCBFFF783FA6C4636
S32D0001053807F5AA750FCD0FC40FCD0FC495E8070084E8070007F5A2730FCBFFF7EDFA00BF25E600BF0000BE42D3
S32D0001056000006143000011430000F0420000254300003E43000072430000414380B582B000AF41F23840C1F6A8
S32D00010588FF704FF0010106F0A3FD41F23840C1F6FF704EF67401C0F2010107F039F84FF000004FF0804101F563
S32D000105B0002105F0CDFB05F0F7FB02460B4610461946FCF79FFB034618460AF071FD4FF00003FB7141F2384014
S32D000105D8C1F6FF704FF0010106F07AFD41F23840C1F6FF704FF0010106F0D0FDFFF70AFD4FF00003184607F1B6
S32D000106000807BD4680BD00BF80B500AF41F6C472C1F6FF7241F24813C1F6FF73D31A194641F24813C1F6FF738A
S32D000106281A460B4610464FF000011A460AF084FD80BD00BF0CF022FE00F0B6F9FFF7E0FF0CF0F4FD0CF090FD7F
S32D000106500CF028FE00F00CF84FF0000041F24811C1F6FF71FFF78AFF034618460AF0F4FC80B500AF4FF4E04319
S32D00010678C4F204034FF4E042C4F2040202F5805202F13802126842F4785203F5805303F138031A6000F034F974
S32D000106A000F09AF841F28433C1F6FF734FF058021A6041F28433C1F6FF731B684FF47A7202FB03F241F28033E6
S32D000106C8C1F6FF731A6041F28033C1F6FF731B681A464FF4E043C4F2040303F5825303F104031B6803F070633A
S32D000106F04FEA136303F10103B2FBF3F31A4641F28833C1F6FF731A604FF4E043C4F204034FF4E042C4F204026C
S32D0001071802F5805202F13C02126842F0225203F5805303F13C031A604FF4E043C4F204034FF4E042C4F20402DC
S32D0001074002F5805202F13002126842F0006203F5805303F130031A604FF45043C4F203034FF480721A614FF0A1
S32D00010768640005F0A5F94FF45043C4F203034FF45042C4F20302526922F010025A614FF45043C4F203034FF0DE
S32D0001079000021A604FF45043C4F203034FF010025A6105F065FD05F00DFE41F27C30C1F6FF7005F005FA41F29D
S32D000107B86870C1F6FF7009F0A5FF41F23840C1F6FF7006F0E7FA41F2883005F0A1FA80BD80B400AF4FF480432E
S32D000107E0C4F206034FF000025A704FF48043C4F206034FF098021A704FF48043C4F206039B79DBB203F010038C
S32D00010808002B0CBF00230123DBB2002BF0D14FF48043C4F206039B79DBB203F00C034FEA9303022B0CBF0023B9
S32D000108300123DBB2002BEED14FF48043C4F206034FF018021A714FF48043C4F206034FF000025A714FF4E0431E
S32D00010858C4F2040303F5825303F104034FF00002C0F213121A604FF48043C4F206034FF054025A7100BF4FF433
S32D000108808043C4F206039B79DBB203F02003002B14BF00230123DBB2002BF0D100BF4FF48043C4F206039B79BA
S32D000108A8DBB203F04003002B14BF00230123DBB2002BF0D14FF48043C4F206034FF48042C4F206021278D2B20A
S32D000108D002F03F02D2B21A704FF48043C4F206039B79DBB203F00C034FEA9303032B0CBF00230123DBB2002B89
S32D000108F8EED14FF000031846BD4680BC704700BF80B400AF4FF44043C4F204034FF480725A634FF2C003C4F2AB
S32D000109200F034FF2C002C4F20F02526942F400525A614FF2C003C4F20F034FF2C002C4F20F02126842F4005236
S32D000109481A604FF44043C4F2040340F20312C0F20A021A634FF46143CEF200034FF46142CEF20002D2F888213C
S32D0001097042F08062C3F888214FF46143CEF200034FF46142CEF20002926842F080629A60BD4680BC704700BFD1
S32D0001099880B483B000AF7860FEE700BF80B400AF00BEBD4680BC704780B400AF4FF0E0224CF20003C0F20003ED
S32D000109C0C2F8083D4FF40053C4F205034CF22052DA814FF40053C4F205034DF62812DA814FF40053C4F205032A
S32D000109E84FF0D2021A80BD4680BC704780B500AF4FF44043C4F20403D3F8A03003F48053002B0CBF0023012334
S32D00010A10DBB2002B1FD04FF44043C4F204034FF44042C4F20402D2F8A02022F48052C3F8A02041F2C040C1F635
S32D00010A38FF7009F09BFC4FF2C003C4F20F034FF2C002C4F20F02126822F400521A6080BD80B485B000AF024601
S32D00010A600B46FA71BB71BB79002B07D141F24C13C1F6FF734FF000021A7006E041F24C13C1F6FF734FF00102DF
S32D00010A881A704FF03803FB7341F24C13C1F6FF731A78FB7B1343FB734FF4C043C4F206034FF4C042C4F206023E
S32D00010AB09278D2B242F01002D2B29A704FF4C043C4F206034FF4C042C4F206029278D2B242F02002D2B29A703F
S32D00010AD84FF4C043C4F20603FA7B1A7107F11407BD4680BC704700BF80B483B000AF4FF001037B6004E000BF4B
S32D00010B007B6803F101037B607B68312BCCBF00230123DBB2002BF2D107F10C07BD4680BC704700BF80B582B05D
S32D00010B2800AF02460B46FA71BB7141F24D13C1F6FF731B7818464FF00001FFF789FF00F033F84FF4C043C4F23D
S32D00010B500603FA791A7100F02BF84FF4C043C4F20603BA791A7100F023F84FF4C043C4F206034FF4C042C4F28E
S32D00010B7806029278D2B222F02002D2B29A704FF4C043C4F206034FF4C042C4F206029278D2B222F01002D2B2B8
S32D00010BA09A70FFF7A5FF07F10807BD4680BD00BF80B483B000AF41F24E13C1F6FF731B78002B33D14FF00003A5
S32D00010BC87B6011E07A6842F210739A4207DD41F24E13C1F6FF734FF001021A7013E07B6803F101037B6000BFE8
S32D00010BF04FF4C043C4F20603DB78DBB203F00203002B14BF00230123DBB2002BDED14FF4C043C4F206034FF405
S32D00010C18C042C4F20602D278D2B242F00202D2B2DA7000E000BF07F10C07BD4680BC704780B582B000AF03461C
S32D00010C40FB71FB79184600F06BF807F10807BD4680BD00BF80B582B000AF02460B46FA71BB7100F039F8FB7913
S32D00010C684FEA4303DBB21846FFF7E2FFBB791846FFF7DEFF00F03EF807F10807BD4680BD80B500AF4FF0FF0028
S32D00010C9000F046F80346184680BD00BF80B584B000AF0346FB7100F017F8FB794FEA4303DBB243F00103DBB254
S32D00010CB8DBB21846FFF7BCFFFFF7E2FF0346FB7300F018F8FB7B184607F11007BD4680BD80B400AF4FF2400359
S32D00010CE0C4F20F034FF24002C4F20F02926842F480129A60BD4680BC704700BF80B400AF4FF24003C4F20F0333
S32D00010D084FF24002C4F20F02526842F480125A60BD4680BC704700BF80B485B000AF0346FB714FF00003BB7344
S32D00010D3003E0FB7B03F10103FB734FF44043C4F20A03DB6A4FF00003002BF2D14FF44043C4F20A034FF4404289
S32D00010D58C4F20A02D26A42F00042DA624FF44043C4F20A03FA795A6300BF4FF44043C4F20A03DB6A03F400334E
S32D00010D80002B14BF00230123DBB2002BF1D14FF44043C4F20A039B6BBB73BB7B184607F11407BD4680BC70472B
S32D00010DA880B582B000AF4FF4E043C4F204034FF4E042C4F2040202F5805202F13002126842F4805203F5805387
S32D00010DD003F130031A604FF42043C4F204034FF480721A654FF24003C4F20F034FF24002C4F20F02526942F4B5
S32D00010DF880125A61FFF77EFF4FF42043C4F204034FF400725A654FF42043C4F204034FF400729A654FF4204378
S32D00010E20C4F204034FF40072DA654FF44043C4F20A034FF44062C8F200021A604FF44043C4F20A034FF005027F
S32D00010E48C3F60062DA604FF000037B6007E04FF0FF00FFF7EDFE7B6803F101037B607B68092BCCBF0023012364
S32D00010E70DBB2002BEFD104A1D1E9000104F068FF07F10807BD4680BD9A9999999999B93F90B486B000AFF860C9
S32D00010E98B9607A60FA684FF42043C4F206039A4214D14FF4E043C4F204034FF4E042C4F2040202F5805202F1B0
S32D00010EC03402126842F4806203F5805303F134031A6083E0FA684FF43043C4F206039A4214D14FF4E043C4F2B4
S32D00010EE804034FF4E042C4F2040202F5805202F13402126842F4006203F5805303F134031A6067E0FA684FF453
S32D00010F104043C4F206039A4214D14FF4E043C4F204034FF4E042C4F2040202F5805202F13402126842F48052F7
S32D00010F3803F5805303F134031A604BE0FA684FF45043C4F206039A4214D14FF4E043C4F204034FF4E042C4F2F9
S32D00010F60040202F5805202F13402126842F4005203F5805303F134031A602FE0FA684FF42043C4F20E039A423E
S32D00010F8814D14FF4E043C4F204034FF4E042C4F2040202F5805202F12802126842F4806203F5805303F12803AF
S32D00010FB01A6013E04FF4E043C4F204034FF4E042C4F2040202F5805202F12802126842F4006203F5805303F1AA
S32D00010FD828031A60FB68DB78DBB223F00C03DAB2FB68DA70FB684FF000029A70BB684FF47A7202FB03F27B68D2
S32D000110004FEA031392FBF3F39CB2FB681B78DBB223F01F03FB75234603F4F8534FEA2323DBB203F01F03DAB231
S32D00011028FB7D1343DAB2FB681A70E2B2FB685A70BB684FF4FA4202FB03F27B684FEA031392FBF3F39AB22346A3
S32D0001105019464FEAC121CB1A4FEA43139BB2D3189CB2FB689B7ADBB223F01F03FB75E3B203F01F03DAB2FB7DA5
S32D000110781343DAB2FB689A72FB68DB78DBB243F00C03DAB2FB68DA7007F11807BD4690BC704700BF80B483B0F7
S32D000110A000AF786000BF7B681B79DBB203F02003002B14BF00230123DBB2002BF3D17B68DB79DBB2184607F1E6
S32D000110C80C07BD4680BC704780B487B000AFF860B9607A60FB687B61BB683B610BE03B691A787B691A707B691A
S32D000110F003F101037B613B6903F101033B617B68002B0CBF00230123DBB27A6802F1FF327A60002BE7D107F15D
S32D000111181C07BD4680BC704780B487B000AFF860B9607A60FB687B6107E0BB68DAB27B691A707B6903F101030B
S32D000111407B617B68002B0CBF00230123DBB27A6802F1FF327A60002BEBD107F11C07BD4680BC704780B489B0B2
S32D0001116800AFF860B9607A60FB68FB61BB68BB614FF000037B617B68002B0CBF00230123DBB27A6802F1FF328F
S32D000111907A60002B19D0FB691B781A46BB691B78D31A7B617B69002B14BF00230123DBB2FA6902F10102FA6101
S32D000111B8BA6902F10102BA61002B02D04FF0010301E04FF00003002BD5D17B69184607F12407BD4680BC704745
S32D000111E080B483B000AF7860396003E07B6803F101037B607B681B78002B08D07B681B781A463B689A4202D020
S32D000112084FF0010301E04FF00003002BEAD17B681B78184607F10C07BD4680BC704700BF80B584B000AF7860E7
S32D0001123039607B681B6BFB60FA683B689A4264D07B681B79002B43D07B685A787B6803F1340310461946FA688E
S32D000112584FF0010304F09AFA0346002B0CBF00230123DBB2002B02D04FF001034BE07B684FF000021A717B688C
S32D000112805A6A7B681B6AD218FB689A4220D97B68DB78FB7214E07B681B6AFA68D318FB607B685A787B6803F1BE
S32D000112A8340310461946FA684FF0010304F06EFAFB7A03F1FF33FB72FB7A012B94BF00230123DBB2002BE2D17C
S32D000112D03B68002B19D07B685A787B6803F13403104619463A684FF0010304F045F90346002B0CBF0023012323
S32D000112F8DBB2002B02D04FF0010304E07B683A681A634FF00003184607F11007BD4680BD80B584B000AF786035
S32D0001132078684FF00001FFF77FFF0346FB73FB7B002B40F0AE807B681B78032B40F095807B685B79002B00F099
S32D0001134890807B684FF000021A637B6803F1340318464FF000014FF40072FFF7DDFE7B684FF0550283F832224B
S32D000113707B684FF0AA0283F833227B684FF0520283F834207B684FF0520283F835207B684FF0610283F83620CF
S32D000113987B684FF0410283F837207B684FF0720283F818227B684FF0720283F819227B684FF0410283F81A223C
S32D000113C07B684FF0610283F81B227B681B69DAB27B6883F81C227B681B699BB24FEA2323DAB27B6883F81D22D6
S32D000113E87B681B694FEA1343DAB27B6883F81E227B681B694FEA1363DAB27B6883F81F227B68DB68DAB27B68E0
S32D0001141083F820227B68DB689BB24FEA2323DAB27B6883F821227B68DB684FEA1343DAB27B6883F822227B680B
S32D00011438DB684FEA1363DAB27B6883F823227B6859787B6803F134027B685B69084611461A464FF0010304F0C0
S32D0001146099F97B684FF000025A717B685B7818464FF000014FF0000204F072FA0346002B0CBF00230123DBB2D4
S32D00011488002B02D04FF00103FB73FB7B184607F11007BD4680BD00BF80B483B000AF786039603B68A3F10203E2
S32D000114B03B607B68DB69A3F102023B689A4202D84FF0000307E07B689B783A6802FB03F27B68DB6AD318184636
S32D000114D807F10C07BD4680BC704700BF80B586B000AF786039603B68012B04D97B68DA693B689A4202D84FF030
S32D000115000103D3E07B681B78022B5FD0032B00F08A80012B40F0C8803B687B617B694FEA53037A69D3187B61CB
S32D000115287B685A6A7B694FEA5323D31878681946FFF776FE0346002B0CBF00230123DBB2002B40F0A6807B694E
S32D000115504FEAC3534FEAD3537A68D31893F834303B617B6903F101037B617B685A6A7B694FEA5323D3187868A9
S32D000115781946FFF755FE0346002B0CBF00230123DBB2002B40F087807B694FEAC3534FEAD3537A68D31893F83D
S32D000115A034304FEA03233A6913433B613B6803F00103DBB2002B03D03B694FEA131304E03B694FEA03534FEA4C
S32D000115C813536FE07B685A6A3B684FEA1323D31878681946FFF724FE0346002B0CBF00230123DBB2002B58D1DD
S32D000115F03B684FEA43034FEAC3534FEAD35303F130037A68D31803F10403FB60FB6803F101031B784FEA032365
S32D000116189AB2FB681B7813439BB29BB242E07B685A6A3B684FEAD313D31878681946FFF7F7FD0346002B0CBF93
S32D0001164000230123DBB2002B2DD13B684FEA83034FEAC3534FEAD35303F130037A68D31803F10403FB60FB68C1
S32D0001166803F103031B784FEA0362FB6803F102031B784FEA03431A43FB6803F101031B784FEA03231A43FB6850
S32D000116901B78134323F0704308E000BF04E000BF02E000BF00E000BF4FF0FF33184607F11807BD4680BD00BF0D
S32D000116B880B588B000AFF860B9607A60BB68012B04D9FB68DA69BB689A4203D84FF00203FB771AE1FB681B7849
S32D000116E0022B00F08580032B00F0AD80012B40F00181BB68BB61BB694FEA5303BA69D318BB61FB685A6ABB6929
S32D000117084FEA5323D318F8681946FFF789FD0346FB77FB7F002B40F0ED80BB694FEAC3534FEAD35303F13003E7
S32D00011730FA68D31803F104037B61BB6803F00103DBB2002B0ED07B691B78DBB203F00F03DAB27B68DBB24FEA78
S32D000117580313DBB21343DBB2DBB201E07B68DBB27A691370BB6903F10103BB61FB684FF001021A71FB685A6A09
S32D00011780BB694FEA5323D318F8681946FFF74CFD0346FB77FB7F002B40F0B280BB694FEAC3534FEAD35303F1F6
S32D000117A83003FA68D31803F104037B61BB6803F00103DBB2002B04D07B684FEA1313DBB20FE07B691B78DBB253
S32D000117D023F00F03DAB27B684FEA1323DBB203F00F03DBB21343DBB2DBB27A6913708CE0FB685A6ABB684FEA03
S32D000117F81323D318F8681946FFF712FD0346FB77FB7F002B7AD1BB684FEA43034FEAC3534FEAD35303F13003BB
S32D00011820FA68D31803F104037B617B68DAB27B691A707B6903F101037A6892B24FEA2222D2B21A7061E0FB6867
S32D000118485A6ABB684FEAD313D318F8681946FFF7E7FC0346FB77FB7F002B51D1BB684FEA83034FEAC3534FEAFC
S32D00011870D35303F13003FA68D31803F104037B617B6903F103031B784FEA03627B6903F102031B784FEA0343DA
S32D000118981A437B6903F101031B784FEA03231A437B691B78134303F070437A6813437B607B68DAB27B691A7036
S32D000118C07B6903F101037A6892B24FEA2222D2B21A707B6903F102037A684FEA1242D2B21A707B6903F1030334
S32D000118E87A684FEA1262D2B21A700AE04FF00203FB7706E000BF04E000BF02E000BF00E000BFFB684FF0010267
S32D000119101A71FB7F184607F12007BD4680BD00BF80B584B000AF786039603B68012B04D97B68DA693B689A424D
S32D0001193803D84FF00203FB7345E04FF00003FB7333E078683968FFF7C9FD0346BB60BB68002B35D0BB68012BC8
S32D0001196003D14FF00203FB7331E0BB68B3F1FF3F03D14FF00103FB7329E0786839684FF00002FFF799FE034696
S32D00011988FB73FB7B002B1DD17B681B69B3F1FF3F09D07B681B6903F101027B681A617B684FF001025A71BB6842
S32D000119B03B607B68DA693B689A4294BF00230123DBB2002BC1D102E000BF00E000BFFB7B184607F11007BD46BE
S32D000119D880BD00BF80B586B000AF786039603B68002B0ED17B68DB683B613B69002B04D07B68DA693B699A42A1
S32D00011A0018D84FF001033B6114E078683968FFF769FD0346BB60BB68012B02D84FF001036EE07B68DA69BB68B0
S32D00011A289A4201D9BB6867E03B683B613B697B6100E000BF7B6903F101037B617B68DA697B699A4209D84FF053
S32D00011A5002037B617A693B699A4202D94FF000034EE078687969FFF73DFD0346BB60BB68002B0FD0BB68B3F18E
S32D00011A78FF3F02D0BB68012B01D1BB683CE07A693B699A42D5D14FF0000335E000BF786879696FF07042FFF7E7
S32D00011AA00BFE0346FB73FB7B002B09D13B68002B06D0786839687A69FFF7FEFD0346FB73FB7B002B12D17B68C5
S32D00011AC87A69DA607B681B69B3F1FF3F13D07B681B6903F1FF327B681A617B684FF001025A7108E0FB7B012B42
S32D00011AF002D14FF0FF3301E04FF001037B617B69184607F11807BD4680BD00BF80B487B000AF786039607B68BD
S32D00011B185B6A03F104033B613B684FEA53227B681B689B78B2FBF3F37B613B691B68FB603B6903F104033B614C
S32D00011B40FB68002B02D14FF0000311E07A69FB689A4208D37A69FB68D31A7B613B6903F104033B61E5E700BF10
S32D00011B683B691A687B69D318184607F11C07BD4680BC704780B584B000AF78600B467B807B687A88DA807B688C
S32D00011B909B68FB60FB68012B05D07B681B68DA69FB689A4202D84FF0020373E0FB68002B08D17B681B681B78AB
S32D00011BB8032B03D17B681B689B6AFB60FB68002B16D17B68FA68DA607B681B681B897A889A4202D34FF0020341
S32D00011BE058E07B681B689A6A7B884FEA13139BB2D2187B681A613FE07B681B689B784FEA03137B811EE07B6879
S32D00011C081B681846F968FFF769FC0346FB60FB68B3F1FF3F02D14FF0010337E0FB68012B05D97B681B68DA69E4
S32D00011C30FB689A4202D84FF002032BE07A887B89D31A7B807A887B899A4234BF00230123DBB2002BD7D17B68D0
S32D00011C58FA68DA607B681B681846F968FFF71CFC02467B884FEA13139BB2D2187B681A617B681B6803F13402BF
S32D00011C807B8803F00F034FEA4313D2187B685A614FF00003184607F11007BD4680BD00BF90B585B000AF786067
S32D00011CA839607B68DB8803F101033B813B89002B03D07B681B69002B02D14FF00403E4E03B8903F00F03002B55
S32D00011CD040F0CE807B681B6903F101027B681A617B68DB68002B09D17B681B681B893A899A42C0F0BD804FF0AB
S32D00011CF80403CAE03B894FEA13139BB21A467B681B689B7803F1FF331340002B40F0AC807B681A687B68DB6838
S32D00011D2010461946FFF7DEFB0346FB60FB68012B02D84FF00203ACE0FB68B3F1FF3F02D14FF00103A5E07B6870
S32D00011D481B68DA69FB689A4200F282803B68002B02D14FF0040398E07B681A687B68DB6810461946FFF736FEAA
S32D00011D700346FB60FB68002B02D14FF0070388E0FB68012B02D14FF0020382E0FB68B3F1FF3F02D14FF001032B
S32D00011D987BE07B681B6818464FF00001FFF740FA0346002B0CBF00230123DBB2002B02D04FF0010369E07B680E
S32D00011DC01B6803F1340318464FF000014FF40072FFF7A6F97B681C687B681B681846F968FFF75EFB03462363B4
S32D00011DE84FF00003FB7220E07B681B684FF001021A717B681B6818464FF00001FFF710FA0346002B0CBF002384
S32D00011E100123DBB2002B02D04FF0010339E07B681B681A6B02F101021A63FB7A03F10103FB727B681B689B78E8
S32D00011E38FA7A9A422CBF00230123DBB2002BD3D17B681B687A681268116BFA7A8A1A1A637B68FA68DA607B6868
S32D00011E601B681846F968FFF71BFB02467B681A617B683A89DA807B681B6803F134023B8903F00F034FEA431377
S32D00011E88D2187B685A614FF00003184607F11407BD4690BD80B586B000AF786078684FF00001FFF767FE0346EA
S32D00011EB0FB75FB7D002B01D0FB7D47E07B681A687B681B6910461946FFF7AEF90346FB75FB7D002B36D17B681C
S32D00011ED85B693B613B691B78FB73FB7B002B03D14FF00403FB752CE03B6903F10B031B7803F00803002B0DD15F
S32D00011F007B689B69386919464FF00B02FFF72AF90346002B02D14FF0010301E04FF00003002B11D178684FF08D
S32D00011F280001FFF7B9FE0346FB75FB7D002B14BF00230123DBB2002BBCD102E000BF00E000BFFB7D184607F113
S32D00011F501807BD4680BD00BF80B584B000AF786078684FF00001FFF709FE0346FB73FB7B002B29D17B681A6880
S32D00011F787B681B6910461946FFF752F90346FB73FB7B002B19D17B685B691B78BB73BB7BE52B14D0BB7B002BA8
S32D00011FA011D078684FF00101FFF77AFE0346FB73FB7B002B14BF00230123DBB2002BD9D102E000BF00E000BF8E
S32D00011FC8FB7B002B23D17B681A687B681B6910461946FFF725F90346FB73FB7B002B16D17B685B69BB60B8689F
S32D00011FF04FF000014FF02002FFF792F87B689B69B86819464FF00B02FFF762F87B681B684FF001021A71FB7BF6
S32D00012018184607F11007BD4680BD00BF80B588B000AF786039603B681B68FB6003E0FB6803F10103FB60FB6823
S32D000120401B782F2B03D0FB681B785C2B02D14FF0010301E04FF00003002BECD17B689B69BB60B8684FF0200191
S32D000120684FF00B02FFF758F84FF00003FB774FF000033B613B697B614FF00803BB61FA687B69D3181B782E2B22
S32D0001209039D1FA687B69D3181B78BB777B6903F101037B61BB7F2E2B0CD17B69022B09D8BA683B69D318BA7F1D
S32D000120B81A703B6903F101033B61E6E700BFBB7F2F2B08D0BB7F5C2B05D0BB7F202B02D94FF00603C5E0FA68FA
S32D000120E07B69D2183B681A60BB6803F10B02BB7F202B02D84FF0240301E04FF0200313704FF00003B1E0FA6802
S32D000121087B69D3181B78BB777B6903F101037B61BB7F202B68D9BB7F2F2B65D0BB7F5C2B62D0BB7F2E2B03D074
S32D000121303A69BB699A4214D3BB69082B02D1BB7F2E2B02D04FF006038FE04FF008033B614FF00B03BB61FB7FE7
S32D000121584FEA8303FB7700BFD1E7BB7F5BB2002B0CDAFB7F43F00303FB77BB7FA3F180024EF64023C0F2010386
S32D000121809B5CBB77BB7F4EF68800C0F201001946FFF726F80346002B0CBF00230123DBB2002B02D04FF0060383
S32D000121A85FE0BB7F402B07D9BB7F5A2B04D8FB7F43F00203FB770DE0BB7F602B0AD9BB7F7A2B07D8FB7F43F085
S32D000121D00103FB77BB7FA3F12003BB77BA683B69D318BA7F1A703B6903F101033B618AE700BFFA687B69D2183B
S32D000121F83B681A60BB7F202B02D84FF0040301E04FF00003BB773B69002B02D14FF0060327E0BB681B78E52BEA
S32D0001222003D1BB684FF005021A70BB69082B03D1FB7F4FEA8303FB77FB7F03F00303012B03D1BB7F43F01003FF
S32D00012248BB77FB7F03F00C03042B03D1BB7F43F00803BB77BB6803F10B03BA7F1A704FF00003184607F1200765
S32D00012270BD4680BD80B584B000AF786039603B681B782F2B03D03B681B785C2B08D13B6803F101033B607B6864
S32D000122984FF000029A6004E07B681B689A697B689A603B681B781F2B0BD878684FF00001FFF760FC0346FB7326
S32D000122C07B684FF000025A6175E03B4678681946FFF7A8FE0346FB73FB7B002B64D17868FFF7DCFD0346FB736C
S32D000122E87B689B69DB7ABB73FB7B002B21D0FB7B042B57D1BB7B03F02003002B10D07B684FF000029A607B68A6
S32D000123104FF000025A614FF00003FB73BB7B03F00403002B44D13EE0BB7B03F00403002B3ED14FF00503FB7345
S32D000123383AE0BB7B03F00403002B37D17B685B69BB60BB6803F10B031B7803F01003002B03D14FF00503FB73C5
S32D0001236029E0BB6803F115031B784FEA03239AB2BB6803F114031B7813439BB29BB24FEA0342BB6803F11B0374
S32D000123881B784FEA032399B2BB6803F11A031B780B439BB29BB21A437B689A6091E790E700BF04E000BF02E0CD
S32D000123B000BF00E000BFFB7B184607F11007BD4680BD00BF80B582B000AF786039607B685A787B6803F1340374
S32D000123D8104619463A684FF0010303F0C9F80346002B0CBF00230123DBB2002B02D04FF0030356E07B6893F88F
S32D0001240033324FEA03239AB27B6893F8323213439BB21AB24AF65523CFF6FF739A4202D04FF0020341E07B6877
S32D0001242893F86D304FEA03627B6893F86C304FEA03431A437B6893F86B304FEA03231A437B6893F86A301343B6
S32D0001245023F07F4244F24613C0F254039A4202D14FF0000321E07B6893F889304FEA03627B6893F888304FEADB
S32D0001247803431A437B6893F887304FEA03231A437B6893F88630134323F07F4244F24613C0F254039A4202D11C
S32D000124A04FF0000301E04FF00103184607F10807BD4680BD80B592B000AFF860B9601346FB71FB681B68FB6263
S32D000124C8FB6A1B78A3F130033B643B6C092B0DD8FB6A03F101031B783A2B07D1FB6A03F10203FB62FB68FA6A18
S32D000124F01A6005E041F25613C1F6FF731B783B643B6C002B02D04FF00B03C9E241F25013C1F6FF733A6C53F81B
S32D000125182230BB62BB68BA6A1A60BB6A002B02D14FF00C03B8E2BB6A1B78002B20D0BB6A5B78184603F0A4FA9F
S32D00012540034687F8273097F8273003F00103DBB283F00103DBB2002B0ED0FB79002B08D097F8273003F004037F
S32D00012568002B02D04FF00A0396E24FF0000393E2BB6A4FF000021A703B6CDAB2BB6A5A70BB6A5B78184602F072
S32D0001259035FD034687F8273097F8273003F00103DBB2002B02D04FF0030379E2FB79002B08D097F8273003F074
S32D000125B80403002B02D04FF00A036DE24FF00003FB63B86AF96BFFF7F9FE034687F8473097F84730012B2AD1D6
S32D000125E0BB6A03F5F9733B623B6A03F104031B78002B20D03B6A03F10B031B784FEA03623B6A03F10A031B7847
S32D000126084FEA03431A433B6A03F109031B784FEA03231A433B6A03F108031B781343FB63B86AF96BFFF7CAFEA4
S32D00012630034687F8473097F84730032B02D14FF001032DE297F84730002B02D04FF00D0326E2BB6A93F8403069
S32D000126584FEA03239AB2BB6A93F83F3013439BB21BB2B3F5007F02D04FF00D0314E2BB6A93F84B304FEA032351
S32D000126809AB2BB6A93F84A3013439BB29BB2BB63BB6B002B15D1BB6A93F85B304FEA0362BB6A93F85A304FEA24
S32D000126A803431A43BB6A93F859304FEA03231A43BB6A93F858301343BB63BB6ABA6B1A62BB6A93F84430FB7763
S32D000126D0BB6AFA7FDA70FB7F012B05D0FB7F022B02D04FF00D03DBE1FA7FBB6B02FB03F3BB63BB6A93F8413023
S32D000126F8FB77BB6AFA7F9A70FB7F002B06D0FA7FFB7F03F1FF331340002B02D04FF00D03C2E1BB6A93F846309D
S32D000127204FEA03239AB2BB6A93F8453013439BB29AB2BB6A1A81BB6A1B8903F00F03002B02D04FF00D03ABE165
S32D00012748BB6A93F848304FEA03239AB2BB6A93F8473013439BB29BB27B637B6B002B15D1BB6A93F857304FEA33
S32D000127700362BB6A93F856304FEA03431A43BB6A93F855304FEA03231A43BB6A93F8543013437B63BB6A93F8BA
S32D0001279843304FEA03239AB2BB6A93F8423013439BB2BB83BB8B002B02D14FF00D0373E1BA8BBB6BD218BB6A90
S32D000127C01B894FEA13139BB2D318BB617A6BBB699A4202D24FF00D0362E17A6BBB69D21ABB6A9B78B2FBF3F388
S32D000127E87B617B69002B02D14FF00D0354E14FF0010387F847307A6940F6F5739A4203D94FF0020387F84730D4
S32D000128107A694FF6F5739A4203D94FF0030387F847307B6903F10202BB6ADA61FA6BBB69D218BB6ADA62BA8BC1
S32D00012838FB6BD218BB6A5A6297F84730032B23D1BB6A1B89002B02D04FF00D0324E1BB6A93F863304FEA03621D
S32D00012860BB6A93F862304FEA03431A43BB6A93F861304FEA03231A43BB6A93F860301A43BB6A9A62BB6ADB6907
S32D000128884FEA83033B6323E0BB6A1B89002B02D14FF00D0300E1BB6A5A6ABB6BD218BB6A9A6297F84730022B7D
S32D000128B004D1BB6ADB694FEA43030CE0BB6ADA6913464FEA43039B184FEA5302BB6ADB6903F00103D3183B63E6
S32D000128D8BB6A1A6A3B6B03F5FE7303F103034FEA53239A4202D24FF00D03D5E0BB6A4FF0FF321A61BB6A4FF048
S32D000129000002DA6097F84730032B40F0A380BB6A4FF000025A71BB6A93F865304FEA03239AB2BB6A93F8643080
S32D0001292813439BB29BB21A46FB6BD218BB6A5A61BB6A5978BB6A03F13402BB6A5B69084611461A464FF001038A
S32D0001295002F012FE0346002B4AD1BB6A93F833324FEA03239AB2BB6A93F8323213439BB21AB24AF65523CFF607
S32D00012978FF739A4238D1BB6A93F837304FEA0362BB6A93F836304FEA03431A43BB6A93F835304FEA03231A4361
S32D000129A0BB6A93F834301A4345F25223C4F261139A421DD1BB6A93F81B324FEA0362BB6A93F81A324FEA0343E1
S32D000129C81A43BB6A93F819324FEA03231A43BB6A93F818321A4347F27223C6F241139A4202D14FF0010301E0C8
S32D000129F04FF00003002B2DD0BB6A93F823324FEA0362BB6A93F822324FEA03431A43BB6A93F821324FEA032369
S32D00012A181A43BB6A93F820321A43BB6ADA60BB6A93F81F324FEA0362BB6A93F81E324FEA03431A43BB6A93F849
S32D00012A401D324FEA03231A43BB6A93F81C321A43BB6A1A61BB6A97F847201A7041F25413C1F6FF731B8803F162
S32D00012A6801039AB241F25413C1F6FF731A8041F25413C1F6FF731A88BB6ADA80BB6A4FF000021A63BB6A4FF067
S32D00012A9000021A71BB6A4FF000029A614FF00003184607F14807BD4680BD00BF80B582B000AF78600B467B8009
S32D00012AB87B68002B08D07B681B78002B04D07B68DB887A889A4202D04FF009030FE07B685B78184602F0D4FF8B
S32D00012AE0034603F00103DBB2002B02D04FF0030301E04FF00003184607F10807BD4680BD80B485B000AF03468F
S32D00012B083960FB71FB79002B02D04FF00B031FE0FA7941F25013C1F6FF7353F82230FB60FB68002B03D0FB68EE
S32D00012B304FF000021A703B68002B03D03B684FF000021A70FA7941F25013C1F6FF73396843F822104FF000031A
